:020000041000EA
:1000000000B5324B212058609868022188439860DF
:10001000D860186158612E4B002199600221596106
:100020000121F02299502B49196001219960352056
:1000300000F044F80222904214D00621196600F024
:1000400034F8196E01211966002018661A6600F04E
:100050002CF8196E196E196E052000F02FF8012189
:100060000842F9D1002199601B49196000215960AB
:100070001A491B48016001219960EB211966A021F2
:10008000196600F012F800219960164914480160C1
:100090000121996001BC002800D000471248134993
:1000A000086003C880F30888084703B5996A0420EC
:1000B0000142FBD001200142F8D103BD02B5186610
:1000C0001866FFF7F2FF186E186E02BD00000240BE
:1000D000000000180000070000035F00212200005C
:1000E000F4000018222000A00001001008ED00E03C
:1000F00000000000000000000000000074B24E7A12
:1001000000200420F7010010CB010010CD010010E9
:10011000C9010010C9010010C9010010C901001077
:10012000C9010010C9010010C9010010CF01001061
:10013000C9010010C9010010D1010010D301001045
:10014000C1010010C1010010C1010010C101001067
:10015000C1010010C1010010C1010010C101001057
:10016000C1010010C1010010C1010010C101001047
:10017000C1010010C1010010C1010010C101001037
:10018000C1010010C1010010C1010010C101001027
:10019000C1010010C1010010C1010010C101001017
:1001A000C1010010C1010010C1010010C101001007
:1001B000C1010010C1010010C1010010C1010010F7
:1001C000EFF30580103800BE00BE00BE00BE00BECA
:1001D00000BE00BEF2EB88714C8D0010688D0010DF
:1001E0003802001090A31AE700201E49086006C8D4
:1001F00081F3088810471C480068002801D00020BF
:10020000F3E70DA40ECC002902D000F012F8F9E7B4
:100210001649174A002000E001C19142FCD115495E
:100220008847154988471549884700BEFDE701C939
:1002300001C29A42FBD37047688D0010C0000020B5
:10024000380C0020E098001000000420000004207A
:10025000E0980010001004200010042000000000AE
:100260007047000008ED00E0000000D0380C0020CE
:10027000A01000201950001079040010DD4F00106C
:1002800070B50D1C06002A49281C03F0EBFA002863
:100290003DD1FE21281C890503F0FAFA7468002874
:1002A00032D10021281C03F0EBFA002831D00123C1
:1002B000327CA340002A33D0D022120653610021A1
:1002C000281C03F0CFFA002803D080231B069C468D
:1002D0006544B36817499C00E418174BA4009C467A
:1002E000281C644403F08FFA03F00AFBF36880B221
:1002F000002B19D1114B22685040802252019446A4
:1003000003406444236070BDFE25AD05CFE77468EB
:10031000074D0123327C5A400123A340002ACBD150
:10032000D02212069361CAE7054B0004E3E7C046FA
:10033000000080BF00C079440C000540FFFF0000B2
:100340000000FFFF831F30B5012B1CD9083801289E
:1003500018D8D02301211B065A685868120A0A408F
:1003600053001A00400A01400A4313000E480F4C84
:10037000017889000A430E49D2B225688A5652197B
:100380002260037030BDD02301211B065A685868D3
:1003900092090A4053001A00C009014005480A4367
:1003A00013000178044CE4E79C100020740F002037
:1003B000B88400109B100020440F0020F0B5C64602
:1003C000002600B5050006740160426010001700A9
:1003D0000C0001F039FB01231A009846D023BA40E3
:1003E0001B065A6204219A612000640801F054FA45
:1003F000EE60AC60052002F01FFC03F05AFA1749CA
:1004000003F0EDF9F421890503F0E6F98321C9052C
:1004100003F0F9F903F074FAAB6811499A00D218A5
:10042000104B9200D3181E609E60DE601961414639
:10043000586019600C4BD118EB680968581E83414D
:100440000A485B4203400A48844663440B4009491A
:100450008C466244136080BCB846F0BD8096984BD1
:10046000E7030000000005400C0005400100FEFF0E
:10047000FFFF00000C100540F0B5DE4645464E4635
:100480005746E121E0B54902C9B09D4802F0ECF9B8
:100490000221002001F000FA0221012001F0FCF904
:1004A000002301220821964802F06CFA01219448A9
:1004B00002F0A4FA934B0322180002219B46FFF797
:1004C0007DFF052204219048FFF778FF8F4B28AA73
:1004D00043CB43C21B68136028AB9846012399465F
:1004E000D0231B06049405959A46454680CD3800D6
:1004F00001F0AAFA4B465246BB40012193623800F4
:10050000002201F0E3F92CAB9D42EFD1049C059D44
:1005100053465A6859684B46012092091A40C90946
:100520007B4B014052000A431A70534652464946DB
:1005300000275B6852681B0A0B40520A10405B00A0
:10054000744A034313700C21734B0122062001F0FF
:10055000FDF901220C21072001F0D2F901220C2122
:10056000082001F0CDF9092001220C2101F0C8F981
:100570006A4B6B4E1F606B4BB0461F605B469B68BF
:1005800069499A00D2185B46DB6892009044581E75
:1005900083418C46414665485B4209680340634499
:1005A0000B4063498C4662441360574B9B689A002A
:1005B000D218554B9200DB6891195E1EB3415B4225
:1005C000034059480968844663440B4058496420F5
:1005D0008C4662441360574B0D261F7002F046F89C
:1005E000554B049405951F70544B523700229B5E67
:1005F0003D009C4600212022B04667465048404BB3
:1006000000296FD1AF4274D099690A42FCD11D60B4
:10061000017801300D394D4269410578C9B2002D8C
:10062000EED1049C059D2022354917008B691F409F
:100630001A42FAD10A230B60424B9846424B9A4623
:100640002F4910228B69DB0617D410008B691840E4
:100650001A42FAD10B68DBB20A2B77D00D2B75D07A
:100660007E2F00D9C0E1182102AA52182449D3557F
:100670008B6910220137DB06E7D502F0B1F80029BB
:1006800000D14FE1FA220023920002F00BFD294B2A
:1006900004001B780025002B0FD0020051462B00D0
:1006A00008684968121A8B411100002B00D050E2F3
:1006B000AF235B00994200D94BE21F4B1B78002B04
:1006C0000CD041462200086849682B00121A8B4161
:1006D000002B00D02BE1312A00D928E1012001F0C4
:1006E000C5FFADE799690A4291D099690A42F9D1EB
:1006F0008DE799690A42FCD14146196084E7C046FA
:1007000000400340480F0020780F0020A88400100C
:100710009B1000209C10002045030010440F002077
:100720000C000540740F0020FFFF00000100FEFFD9
:100730000C1005409A100020981000209410002002
:10074000C0820010B80D0020C00D0020002F00D185
:1007500076E700231822994602AB9B184A46DA49ED
:10076000DA55079208A807AA06F0F2F9071E00D189
:10077000D6E0D64905F0B0F8002800D1A6E0380050
:10078000D34905F0A9F8002800D14CE23800D1493E
:1007900005F0A2F8002800D180E33800CE4905F02A
:1007A0009BF8002800D1CFE33800CC4905F094F83D
:1007B000002800D104E33800C94905F08DF800286D
:1007C00000D096E2C04907AA06F0C2F9BE49070068
:1007D00007AA002006F0BCF9002F01D100F04FFC61
:1007E000002801D100F04BFC002328A92893060023
:1007F00006F01EF9289B81469E4201D100F0CEFCF6
:100800001B78002B01D000F0C9FC002103F02AF86E
:10081000002801D000F056FDFE214846890503F06E
:1008200037F8002801D000F00DFE0021484603F003
:100830001FF8002801D000F045FD3800A94905F057
:100840004BF8002801D100F09EFD3800A64905F0C4
:1008500043F8002801D100F01AFE3800A34905F042
:100860003BF8002801D100F01BFE3800A04905F03C
:1008700033F8002801D100F019FE9E49484602F0E5
:10088000C2FF9D49061C380005F026F8002801D15A
:1008900000F036FE3800994905F01EF8002801D115
:1008A00000F072FD3800964905F016F8002801D0D6
:1008B00000F016FE802380221B064B441206994648
:1008C0009446330063441E1C00F05EFD8D4B0D26E4
:1008D00000229B5E049405959C464F270021202210
:1008E000B14665468848894B002900D0E3E0BD4207
:1008F00000D123E199690A42FCD11F6001780130DF
:100900000D394F4279410778C9B2002FECD1049CD0
:10091000059D20217D4A93691942FCD10A23136069
:1009200000278DE6FA21890002F07EFBAFE6434600
:100930001C605D60764B1B689946764B1B681E00F9
:1009400001F04EFF002900D1FEE0FA2200239200C0
:1009500002F0A8FB002303934B466F4A02900093DA
:1009600080216E4B019628A804F0CEFA982202ABA3
:100970009B181B789C46002B21D0624B0494059554
:1009800000229B5E64469946BC46002120224D46CB
:1009900027005E4B28A8002919D1BD421ED09969B5
:1009A0000A42FCD11F60017801300D394F42794174
:1009B0000778C9B2002FEED1049C059D674620211F
:1009C000524A93691942FCD10A23136086E6996959
:1009D0000A42E7D099690A42F9D1E3E799690A42E4
:1009E000FCD10D211960DAE75B4659469A684C4EF6
:1009F00093009B184B4A9B009F18CA68B446511E2F
:100A00008A414949494E52420A406244B4463F68CD
:100A100063443A401A60464B049405959B689A00DB
:100A2000D218404B9200D718414BDB685E1EB34191
:100A30005B420B403A490D268C46396863440B40B3
:100A40003A4945278C46624413603A4B002118709E
:100A50002C4BB14600229B5E20229C4665463648C0
:100A60002A4B00291AD1BD421FD099690A42FCD1F4
:100A70001F60017801300D394F4279410778C9B2C2
:100A8000002FEED1049C059D2022204917008B6980
:100A90001F401A42FAD10A230B60D1E599690A4234
:100AA000E6D099690A42F9D1E2E799690A42FCD194
:100AB00049461960D9E799690A4200D11DE7996949
:100AC0000A42F8D119E7C046DC820010E08200102B
:100AD000F082001000830010208300103C8300107F
:100AE00080830010C4830010CC830010E0830010CA
:100AF000F08300103333B33ED8830010E883001036
:100B0000F883001094100020E88200100040034099
:100B1000440F0020740F0020108300109C840010EC
:100B2000FFFF00000C0005400100FEFF0C10054017
:100B3000780F00209A1000206C84001099690A42F6
:100B4000FCD149461960D5E6FA21890002F06CFA19
:100B500000E75B469A68C24E93009B185A46D268DB
:100B60009B00511E8A41BF49524289460A40BE49F4
:100B700098198C46BD4962448C4600686344024023
:100B80001A60BB4B049405959B689A00D218B84B29
:100B90009200DB689019591E8B4149465B420B401D
:100BA000B1498C46016863440B40B049B1488C465A
:100BB000624413600023B04A00211370AF4B00223F
:100BC0009B5E2022994645239C4664464D46BC4682
:100BD0002700AB4B002919D1BD421ED099690A42AA
:100BE000FCD11F60017801300D394F4279410778FF
:100BF000C9B2002FEED1049C059D67462021A04A72
:100C000093691942FCD10A23136056E599690A4297
:100C1000E7D099690A42F9D1E3E799690A42FCD120
:100C20000D211960DAE75B469A688D4E93009B1898
:100C30005A46D2689B00511E8A418A4952428946CF
:100C40000A4089499F198C46884962448C463F680E
:100C500063443A401A60864B049405959B689A0059
:100C6000D218834B9200DB689719591E8B41494675
:100C70005B420B407C490D268C46396863440B402F
:100C80007A494F278C46624413607B4B00211870D1
:100C90007A4BB14600229B5E20229C4665467948ED
:100CA000774B002918D1BD421DD099690A42FCD169
:100CB0001F60017801300D394F4279410778C9B280
:100CC000002FEED1049C059D20216D4A93691942A5
:100CD000FCD10A23136023E699690A42E8D0996996
:100CE0000A42F9D1E4E799690A42FCD14946196000
:100CF000DBE75B469A685C4F93009B185A46D268C4
:100D0000BC46511E8A41564E56499B009819524284
:100D100000680A40624402405448049405958446A1
:100D200063441A60524B9B689A00D218504B920051
:100D3000DB6890195F1EBB415B420B404A490D26A0
:100D40008C46016863440B40484945278C46624401
:100D500013604A46484B00211A70484BB1460022A6
:100D60009B5E20229C4665464748454B00291AD188
:100D7000BD421FD099690A42FCD11F600178013041
:100D80000D394F4279410778C9B2002FEED1049C4A
:100D9000059D20223A4917008B691F401A42FAD15B
:100DA0000A230B604CE499690A42E6D099690A4229
:100DB000F9D1E2E799690A42FCD149461960D9E7BD
:100DC000324907AA05F0C4FE071E00D126E10378C8
:100DD000312B00D0F2E0012243789146002B00D065
:100DE000ECE04A462A4B1A7001F0FAFC002900D1C7
:100DF0004EE2FA220023920002F054F943464246A2
:100E00001860002353604B462248002B00D1224833
:100E10001A4B0D2600229B5E049405959C464F2795
:100E200000232021B1466546154A002B00D021E25F
:100E3000BD4200D126E293691942FCD117600378C4
:100E400001300D3B5F427B410778DBB2002FECD1D4
:100E5000049C059D20210A4A93691942FCD15DE555
:100E60000C0005400100FEFFFFFF00000C100540D4
:100E7000780F0020888400109A1000209410002021
:100E800000400340F882001058840010DC820010FB
:100E900098100020A0820010B0820010AB4B1F6899
:100EA000AB4B1B68994601F09BFC002900D1E1E0A7
:100EB000FA220023920002F0F5F8002303934B4638
:100EC000A44A029001930097A34B802128A804F024
:100ED0001BF8982202AB9B181F78002F1FD09F4B46
:100EE0000D2600229B5E049405959C46002120223D
:100EF000B14665469A4B28A8002918D1BD421DD09D
:100F000099690A42FCD11F60017801300D394F42C6
:100F100079410778C9B2002FEED1049C059D2021AC
:100F20008F4A93691942FCD10A231360F8E4996946
:100F30000A42E8D099690A42F9D1E4E799690A427C
:100F4000FCD149461960DBE7804B0D261860804BC9
:100F5000049405951860814B4F2700229B5E002169
:100F60009C462022B14665467E487D4B002918D11B
:100F7000BD421DD099690A42FCD11F600178013041
:100F80000D394F4279410778C9B2002FEED1049C48
:100F9000059D2021724A93691942FCD10A231360EE
:100FA000BEE499690A42E8D099690A42F9D1E4E7B6
:100FB00099690A42FCD149461960DBE73B786F2BFF
:100FC00003D17A786E2A00D167E14F2B00D146E138
:100FD0003800654904F080FC002800D15DE238004B
:100FE000624904F079FC8146002800D1F9E6380016
:100FF0005F4904F071FC8146002800D1F1E6380019
:101000005C4904F069FC8146002800D1E9E638001B
:10101000594904F061FC002800D145E24F4B4527B7
:1010200000229B5E0D269C460494059500213D0000
:101030002022B14667465148494B002900D033E190
:10104000AF4200D138E199690A42FCD11D600178B4
:1010500001300D394D4269410578C9B2002DECD1FE
:10106000049C059D20213E4A93691942FCD10A2324
:10107000136055E4FA21890001F0D6FF1DE75A46B6
:101080005B46D2683E4F501E8241BC469B683D4E37
:101090009900C9183C4889008B1952421B680240CC
:1010A00062441A40394B049405959C46384B614480
:1010B0009B680A609A00D218354B9200DB68911940
:1010C0005F1EBB415B4203402D4809688446634470
:1010D0000B402E490D268C466244136000232D4A96
:1010E000452713701D4B002100229B5EB1469C4694
:1010F0002022654628481A4B002919D1BD421ED02E
:1011000099690A42FCD11F60017801300D394F42C4
:1011100079410778C9B2002FEED1049C059D2021AA
:101120000F4A93691942FCD10A231360FFF7F8FBB9
:1011300099690A42E7D099690A42F9D1E3E79969C6
:101140000A42FCD149461960DAE7C046440F002044
:10115000740F0020108300100883001094100020EA
:10116000004003402C830010488300103C85001091
:1011700050830010548300105883001060830010C7
:10118000FFFF00000C0005400100FEFF0C100540B1
:10119000780F00209A100020888300105A461423EC
:1011A0009168D26899465943501E8241C14BC2484A
:1011B0009C465242C14B024062449C46C04EC14BC9
:1011C0008F193F6861443A400A609A684B465A4317
:1011D000BC4B9119DB6809685F1EBB415B42034051
:1011E000B4480D26844663440B40B44904940595E5
:1011F0008C46624413600023B34A45271370B34AF8
:10120000B1460021525E202194466546B048B14A5D
:10121000002B17D1BD421CD093691942FCD1176035
:10122000037801300D3B5F427B410778DBB2002F32
:10123000EED1049C059D2021A64A93691942FCD158
:10124000FFF76CFB93691942E9D093691942F9D110
:10125000E5E793691942FCD14B461360DCE77B78E4
:101260004E2B00D0B4E60122BB789146002B00D172
:10127000B7E5ADE69369194200D1DFE593691942FC
:10128000F8D1DBE593691942FCD14B461360D2E5F6
:10129000FA21890001F0C8FEB0E50121BA7889463B
:1012A000002A00D19DE590E699690A4200D1CDE679
:1012B00099690A42F8D1C9E699690A42FCD14946BE
:1012C0001960C0E65A4614239168D268994659437A
:1012D000501E8241774B78489C465242774B0240E1
:1012E00062449C46764E774B8F193F6861443A4082
:1012F0000A609A684B465A43724B9119DB68096839
:101300005F1EBB415B4203406A480D26844663442E
:101310000B406A49049405958C4600216244136091
:10132000694B4F271970694BB14600229B5E202202
:101330009C4665466848674B002917D1BD421CD0C2
:1013400099690A42FCD11F60017801300D394F4282
:1013500079410778C9B2002FEED1049C059D202168
:101360005C4A93691942FCD1FFF7D8FA99690A429D
:10137000E9D099690A42F9D1E5E799690A42FCD1B5
:1013800049461960DCE74E4649465846FEF778FF65
:101390004C48311CFEF774FF01F022FA002970D18D
:1013A000FA21890001F040FE53460021186059607F
:1013B0000123454A049405951370444B4748002285
:1013C0009B5E20229C464F2399464C466546B94673
:1013D0002700404B00293AD1BD423FD099690A42CB
:1013E000FCD11F60017801300D394F4279410778F7
:1013F000C9B2002FEED14F4600233878AC46049C8A
:10140000059D984217D00D262021B1466546314AE8
:10141000002B29D1A8422ED093691942FCD110602B
:101420003B7801370D3B584243413878DBB2002806
:10143000EED1049C059D2021264A93691942FCD1D6
:10144000FFF76CFAFE239B059946FFF7F6F99969B9
:101450000A42C6D099690A42F9D1C2E799690A429B
:10146000FCD10D211960B9E793691942D7D093696E
:101470001942F9D1D3E793691942FCD14B46136065
:10148000CAE7FA220023920001F00CFE8CE78023C9
:101490001B064B4499461E1C76E701239946A0E49F
:1014A00000234E4699466FE781469AE400231E1CAE
:1014B0006AE7C046FFFF00000100FEFF0C10054078
:1014C0000C000540780F00209A1000209410002096
:1014D000B083001000400340F88200104C840010DC
:1014E0003800474904F0F8F900280DD1802212068F
:1014F000944633004A46634462441600994643E7E3
:101500004B46B1461E1C3FE738003E4904F0E4F963
:10151000002805D180231B064B444E46994633E7ED
:101520003800394904F0D8F9002804D180231B067B
:101530004B441E0028E75A4614239168D268994606
:101540005943501E8241314B31489C465242314BE7
:10155000024062449C46304E304B8F193F686144D4
:101560003A400A609A684B465A432C4B9119DB6803
:1015700009685F1EBB415B42034024480D26844638
:1015800063440B402349049405958C460021624432
:101590001360234B45271970224BB14600229B5EF6
:1015A00020229C4665462048204B00291AD1BD4286
:1015B0001FD099690A42FCD11F60017801300D39B2
:1015C0004F4279410778C9B2002FEED1049C059DA6
:1015D0002021164B9A691142FCD10A2200271A6079
:1015E000FFF72EF899690A42E6D099690A42F9D1C3
:1015F000E2E799690A42FCD149461960D9E7C04639
:10160000088400101884001024840010FFFF0000DC
:101610000100FEFF0C1005400C000540780F002073
:101620009A100020941000203484001000400340E1
:10163000D0231B061A68F0B59300454698464146EC
:10164000914BDE4657464E465B58E0B59B465300ED
:101650009B188E4A1B01944683B0634401938C4BC4
:1016600008269A463500083DEA0813000199083318
:101670009B005C58002C27D05B46002B2ED001230A
:101680000F27994639002140274217D0524640463D
:101690002B001258203BEA40DB1713404A46134206
:1016A0000CD1072208002A40920090400200EB086B
:1016B00078483C339B001A502800D847240901354C
:1016C000002C01D0B542DDD30836282ECAD103B094
:1016D000F0BCBB46B246A946A046F0BD0F23180099
:1016E0002040234209D04146694B59583300E94014
:1016F000283BDB0F0B4200D197E02309F11F002BA1
:10170000E2D00F22100018401A4211D04246604B1E
:101710009A583300CA40273BDB0F134208D10722F7
:10172000CB081140890088405A4A3C339B009850AE
:10173000230AB11F002BC7D00F22100018401A42F5
:1017400011D04246524B9A583300CA40263BDB0F19
:10175000134208D10722CB081140890088404D4A26
:101760003C339B009850230B711F002BACD00F22F1
:10177000100018401A4245D1230C311F002BA3D072
:101780000F22100018401A4258D1230DF11E002BD1
:101790009AD00F22100018401A4262D1230EB11EB7
:1017A000002B91D00F22100018401A4211D042464F
:1017B000374B9A583300CA40223BDB0F134208D103
:1017C0000722CB08114089008840324A3C339B00F5
:1017D0009850240F711E002C00D175E753464246E5
:1017E0009A583300CA40213BDB0F134200D06BE70D
:1017F0000722CB08114089008C40264A3C339B00CD
:101800009C5061E74246224B9A583300CA40253B20
:10181000DB0F1342B0D10722CB081140890088406A
:101820001C4A3C339B009850A6E707231D40AD009F
:10183000A840184B3C329200D0505EE74246144B11
:101840009A583300CA40243BDB0F13429DD1072234
:10185000CB081140890088400E4A3C339B009850C9
:1018600093E742460A4B9A583300CA40233BDB0FAA
:10187000134293D10722CB08114089008840054AC2
:101880003C339B00985089E7000F00200041014045
:101890006C0F00200040014010B54024084A83002E
:1018A0009A181268C0005440C0222240054CA44639
:1018B00063441A60044B9C466044416010BDC046BE
:1018C00004C0014004D00140004001400B4B8000A7
:1018D0009C46604400290ED100230431002A00D127
:1018E0001900802203685201594094460C23604439
:1018F0000B40036070470C210823EFE704C0014050
:10190000D0231B0630B51C68050063001C19C308F2
:1019100007202840800081401800094D3C302401F8
:1019200080009B0041511B19002A04D0054A9446AF
:101930006344196030BD044A944663441960F9E772
:10194000004001400061014000710140F8B5CE4601
:10195000474605000C001E0080B5002A22D1D02188
:1019600009060B68334F5A00D318C20807201B0121
:10197000054010009200D2182F4BAD009C46AC40A1
:101980003C302E4D80006244445114600C68A40029
:101990003B59002B2FD0002E42D03E51C0BCB9463F
:1019A000B046F8BDD0231B061968224F99468B001C
:1019B0009846FB58002B27D0002E36D04346FE50C9
:1019C000D0231B0619680720EB0805401800AD005E
:1019D000AC401A4A3C30800084504A005218120130
:1019E0009B009B18164A0121944663440D201C60FD
:1019F00000F0B0F8D2E7002ED0D000220D2011491F
:101A00003E5100F0E3F8C9E7002EDCD043460D4913
:101A1000FE5000220D2000F0D9F84B461968D2E79D
:101A20000D20084900F0AAF9B7E70D20054900F09C
:101A3000A5F9C3E7000F00200071014000400140FC
:101A400000610140311600100123D0228340402163
:101A5000120693629361094A83009A181268C000C3
:101A60005140C0220A4006498C4663441A60054B27
:101A70009C460523604443607047C04604C0014053
:101A800004D00140004001400FB400B5084883B0C5
:101A900003F006FC049B002B07D005A91800019158
:101AA00003F066FA034803F0FBFB012003F078FA29
:101AB000C88400101488001070B5EFF3108C72B653
:101AC0000D4D2B68002BFCD0BFF35F8F0724CB0894
:101AD000C618C05C01230C40A3401C000440034214
:101AE00007D103433370BFF35F8F2C608CF31088F2
:101AF00070BD1000FFF7C8FF2C0100D0044A107819
:101B0000431CDBB2172B00D9102313707047C0465B
:101B1000E80100200021044B044ABFF35F8F02C399
:101B20009342FAD17047C046000100D0800100D036
:101B3000054B064A1360064A136053609360D360F6
:101B400013615361936170478080808000E400E0FE
:101B500004E400E01F2318401E3B8340002905D009
:101B6000C021044A49005350136070478022014944
:101B70008B50FAE700E100E010B5EFF3108C72B67D
:101B80000F4A1368002BFCD0BFF35F8F0D4B103052
:101B90009B6880001B580C4A934203D0994201D0A5
:101BA00001F0F0F8074B9B681950BFF35F8FBFF34C
:101BB0005F8F0022024B1A608CF3108810BDC04664
:101BC000240100D000ED00E0C1010010F0B5DE46B8
:101BD00057464E464546E0B583B00191EFF3108B72
:101BE00072B65A490B68002BFCD0BFF35F8F0021FF
:101BF000574B59568946002900DAA5E049000D00E7
:101C0000544C4D44AD0067198A46B97910301970AB
:101C1000514B81009B6800915B5898461B1B2F2BF2
:101C20002BD8012140468843C379934208D862E00B
:101C30004B005B189B00E318DE7996424CD91800E4
:101C4000062141560029F3DA031D9C46434D6646A2
:101C50003B1F9B1B424F1B055B0D3B4383804B4649
:101C6000837153464B449B00E4183E4BA580236090
:101C7000019BA171E271A36019E03B4B984500D034
:101C800062E03A4B36496353394B02356419043BE1
:101C90001B1B1B055B0D0B437B80364BFA71BB8016
:101CA000FF23BB71019BBB6001231F43B846414624
:101CB000294B009A9B689950BFF35F8FBFF35F8FEA
:101CC0000022224B1A608BF3108803B0F0BCBB4695
:101CD000B246A946A046F0BD031D9C468388043544
:101CE0005B051B15634465195D1BE0232D056D0D18
:101CF0001B021D43ABE7204BFA719C46030066466E
:101D00001B1B5B415E43360D184BB4466353AB1C43
:101D10009846A0444646164B043B9B1B1B05104EA1
:101D20005B0D33437B802B1DE318C31A043B1B055B
:101D30005B0D3343BB806346BB71019BBB60094BAA
:101D40000F43B8460360B2E701F01CF8240100D04D
:101D500099100020EC01002000ED00E001BD000022
:101D600000E0FFFF01488047C101001000A1FFFF14
:101D70001C02002001BDFFFFAAAA0000F8B5DE4644
:101D800057464E464546E0B5EFF3108C72B6604AB2
:101D90001368002BFCD0BFF35F8F5E4B5E4C9A68DC
:101DA000030010339D005259A2423DD08A424DD0CB
:101DB0005A4C161B2F2E37D8594EB0463668B146AE
:101DC00001264F46B246864037401F2630405646D1
:101DD0008640B346B946802046465F463750BFF33B
:101DE0005F8FEFF305808046002831D1012310007A
:101DF00098438668B14208D17DE07B00DB199B00E7
:101E0000E3189E68B1422CD018000627C757002F50
:101E1000F3DAB1424ED04B46002B1DD0C0215846BC
:101E20003F4B4900585018603A4B9B685A51BFF3DA
:101E30005F8FBFF35F8F0022354B1A608CF31088E1
:101E4000F0BCBB46B246A946A046F8BD2200EBE76F
:101E50008342CBD000F096FF802358463049C850CB
:101E6000E2E7062159568A46002924DB51465046AE
:101E70004900081880002618B7689F60F779DF715D
:101E80000627F7579F71002F26DBB6887605361593
:101E90008619E01A8019E0260005400D360230430D
:101EA000988051441F4B890064181978A1715146DC
:101EB0001970B0E70300414600290FD1FF3181714D
:101EC0001949818017480178997118491B1B5B419A
:101ED0005943090D01709EE71548E1E71549164879
:101EE000C91A08394C02640D2043988013484908E8
:101EF0000143D9808FE70623C3569A465146030013
:101F00000029B3DA41460029E8D1034ADAE7C0469E
:101F1000240100D000ED00E0C1010010EC01002020
:101F200000E100E09910002001BDFFFFAAAA000017
:101F300001BD00002602002000F0FFFF00F8FFFFB7
:101F400070B501240443EFF30581EFF3108C72B6F2
:101F5000214A1368002BFCD0BFF35F8F1F4B050095
:101F60001F4AED1A6D416A43120D1E4D8900AE687D
:101F700052B27658A6421CD00621595691421CD026
:101F800012215956914222D01E215956914220D0F9
:101F90002A2159560324914210D0134B19781A70F4
:101FA0008171BFF35F8F00220B4B1A608CF3108896
:101FB00070BDAB680D4C5C50EFE70024610009195F
:101FC00089005B18FF21997109499980E5E701248F
:101FD000F4E70224F2E7C046240100D0EC0100201F
:101FE000AAAA000000ED00E099100020C101001035
:101FF00001BDFFFF024B9C466144890001607047B0
:1020000040000034F8B5134D134E2C00FF27B542A5
:102010001ED22368002B0FD0FFF770FD01002800AF
:10202000FFF7E8FFA780BFF35F8F0834B4420FD2F9
:1020300023682500002BEFD1FFF760FD0100280089
:10204000FFF7D8FF2771BFF35F8F0834B442EFD397
:10205000F8BDC046300C0020380C00200A4B19682F
:10206000EFF3108072B60A68002AFCD0BFF35F8FCE
:102070001B68BFF35F8F00221A6080F3108840BF97
:10208000002000217047C04690100020F0B5DE46C9
:1020900057464E464546E0B585B0EFF3058203232B
:1020A00013409A0011000392B64A525890460122FA
:1020B0009A409146B44B1A604B46B448436343463A
:1020C00008229B5E9A46002B3DDA43469B881BB252
:1020D000002B00DBA1E043469B79002B00D0F3E00E
:1020E000434608241C5F002C23DB424652696300F0
:1020F00094461B19DB0063449C68DD68631C00D1B7
:102100000FE1A248039984466144826A0B69A61ACA
:102110009B1A9E4215D34A46036A1A4211D09B4825
:1021200000F056FB241A8D41002D02DCC4D1002C96
:10213000C2D040BF05B0F0BCBB46B246A946A046DF
:10214000F0BD0C61EBE7424652695B009346534495
:10215000DB009B445B469E68DF6800F039FB801B18
:10216000B9410029B1DB002F00DAE5E05B46884A7F
:102170001B69934200D1D8E041465A460820085EC8
:102180005288000410435A465169984704000D00D4
:1021900023002B4300D1CFE0002D00DBE8E0361B0D
:1021A000AF4134003D005B469C60DD600021595E1C
:1021B000002900DA89E743465B6922009C462B0030
:1021C00048004018C00060448668C768921BBB4145
:1021D000002B00DA79E74346664602000094019539
:1021E00019810CE07B00DB19DB00F31800980199E2
:1021F0009C68DD68001BA941002904DB1A0000234C
:10220000D75E002FEEDA5B461F80534613804346AD
:102210009B881BB2002B00DA5DE743461A69EFF397
:10222000108172B61368002BFCD0BFF35F8F43465A
:102230009B8842461BB29A4601235B4293801369F6
:10224000BFF35F8F00221A6081F310885346002B82
:1022500000DA40E743465B699C46082343449B46BB
:1022600053465F0043465744FF0008229A5E674486
:102270005E46BC68FD68002A19DB3B0000940195AE
:1022800067469C4604E01E000023F25E002A0BDB3A
:102290000098019953009B18DB00FB189C68DD68CF
:1022A000001BA9410029EEDA6346BC461F005346D5
:1022B000338000217B5E3A809A46002BD0DA434679
:1022C0009B79002B00D10BE70023424693714346D4
:1022D00046460821595E08364B1C00D129E747467F
:1022E0008C46556902E006004B1C17D04B005B186A
:1022F000DB00E8180A00E95E43881BB2002BF2DA23
:1023000001235B42DC178360C4606245ECD03180FE
:102310003B89944603803A814B1CE7D1B84664461A
:10232000E1E66B1C00D0ECE6F9E65B465C69200058
:1023300023699847002821D15B4642461B881381B8
:102340001269EFF3108372B611680029FCD0BFF355
:102350005F8F4246594652880A8042465146518014
:102360001269BFF35F8F0021116083F31088ACE620
:10237000064800F02DFA24184D4114E765682468DA
:1023800006E7C0465C0F00203C7005400040054059
:102390008D20001070B52E4C2569002D04D00A2127
:1023A0002C48FFF727FE70BD2B4E0321300000F0B4
:1023B00005FAE660FFF7A2FB284B03229C46D023D8
:1023C00022701B061B6801216370254B6044A360CB
:1023D0000F23800020610220638063694942A1804D
:1023E00019800231198647311D83585218315A52CB
:1023F00075325C39995218320131995218320131D3
:102400009952183201319952083518329D520231D1
:1024100018329952183201319952183201319952B9
:102420001832013199521832013199521832013162
:1024300099520C4B0C49DC6001303562FFF79CFB74
:1024400001210320FFF786FB084B1D60A7E7C0466C
:10245000340200209010002000400540400000346D
:10246000FFFF10005C0F00208D2000103860054039
:1024700070B5C646010000B50469EFF3108C72B662
:1024800020680028FCD0BFF35F8F02200D5E4869F2
:102490006C0080466419E4004444002D01DB208870
:1024A00048800869BFF35F8F002606608CF31088B0
:1024B000002D30DBE36063880598013320615B0405
:1024C00006985B0CA26060611A1C002B21D090B2B0
:1024D0002B04628018430A69EFF3108672B6136802
:1024E000002BFCD0BFF35F8F8B8823808D800B691E
:1024F000BFF35F8F00221A6086F310880B780132D9
:102500009A40CB6805498C4663441A6040BCB0468B
:1025100070BD0122DBE701204042F7E73C200000CC
:1025200010B543890A14934233DD53009B18426966
:10253000DB00944604696344EFF3108C72B62268A2
:10254000002AFCD0BFF35F8F5A88090494B2090CAB
:102550008A4208D00369BFF35F8F00221A608CF3B0
:102560001088002010BD8022120214435C800123D9
:1025700002698371BFF35F8F002111608CF31088B3
:10258000054902788C469340C2680120624413607A
:10259000E8E70020E6E7C0463C200000F0B5040074
:1025A0000D0006267642F717C64636196F4100B56C
:1025B00082B08F4214D811D000F012F932003B00E3
:1025C000121A8B41002B15DC002B44D0200029006F
:1025D00000F03AF902B080BCB846F0BD8642EBD9B3
:1025E0000026002700F0FCF832003B00121A8B4155
:1025F000002BE9DD00F0F4F832003B00121A8B41A9
:10260000002B0ADB00230193144B32000093144883
:102610003B00FFF72DFF0028D8DBB0460026BC4664
:10262000104A114F7B6A9C4504D8B96A8845CDD9B8
:102630009C45CBD11168EFF3108072B60B68002B6C
:10264000FCD0BFF35F8F1368BFF35F8F1E6080F312
:10265000108820BFE6E7002AB8D0CBE75D20001045
:1026600034020020901000200040054070B50600A4
:1026700000F0B6F8FA2204000D000023300000211B
:10268000920001F089F800196941002902DBFFF787
:1026900085FF70BD012001494042F8E7FFFFFF7F41
:1026A000F0B5D6464F464646C0B504000D0082B090
:1026B000EFF30583002B30D13C4B9A461B688342D5
:1026C00026D03B4B2F009846DB6899464346484648
:1026D0001E7800F07DF80B0049460436B600020073
:1026E000715826000020B61A9F41891AB84224DC8E
:1026F00021D020BF2F4A536AAB422AD3926A0120CD
:10270000A2424AD302B0E0BCBA46B146A846F0BDE8
:1027100053465B688B42D4D1EBE7264A0020536ACC
:102720008B42EFD3926A0130A242EBD2581A421E7A
:102730009041C0B2E6E7B142DBD900F051F8220087
:102740002B00121A8B41002B05DA1A4A536AAB424E
:10275000D4D20020D6E700230193174B2200009328
:1027600040462B00FFF784FE011EEEDD53461C6041
:102770005D60104B2E005A6A954215D89B6AA342A1
:1027800010D34046FFF7CCFE0A4A0020536A9E420F
:10279000B8D8926A0130A242B4D2E81A421E9041DF
:1027A000C0B2AFE79542ECD120BFEAE7500200206B
:1027B00034020020004005405D20001010B5024AA0
:1027C0000248FFF779F910BDD8840010080F0020E7
:1027D0000300416A0A00986A596A8A42FAD170472E
:1027E000034B596A0A00986A596A9142FAD17047B4
:1027F0000040054070B504000D00124A536A1900EC
:10280000966A536A8B42FAD13000190024184D4160
:10281000AB4211D80ED02B000A494A6A9A42FCD327
:1028200007D1084A02E0516A994202D1916AA14255
:10283000F9D370BDA642EED9012301246442E51705
:102840005B42E9E700400540064A536A9942FCD8DA
:1028500007D1044B02E05A6A914202D19A6A82423D
:10286000F9D3704700400540F8B5040006200D007C
:1028700000F0E2F9002842D0364B3749E2185342C3
:102880005A418023DB039C469205344B62441A6014
:10289000334B1A6010000B689843FBD12D4B8021FD
:1028A000E3185A4253412F4A5B00490099520620CF
:1028B00000F0C2F92900C00000F0B6FB0130C309E6
:1028C0001ED1402701226262A362266BF30722D445
:1028D000E36A254B0620E51800232B60266300F0F1
:1028E000ABF93900800000F09FFB7022E36A5A4088
:1028F0007E2313402B601D4B23630323A364F8BD89
:102900001B4A93421ED900231A4A1B4F6262A362DC
:10291000266BF307DCD5194B144AE3181A60656A75
:10292000A26A0620AD01AD1800F086F9144900F046
:102930007BFBAD020100280000F076FB0021FFF7D1
:1029400059FFC5E74006800E9F011A003F1803009B
:10295000B9E7C0460080FCBF08C0004000E000406E
:1029600000F00040941000202C1000000103000033
:10297000FEFF0000FFFF0000C0FF3F0030300000FE
:102980004E0E00000539013AF8B5D2004C010500A1
:102990001443002B05D002222243012B24D10533FE
:1029A0001C432E6BF30708D4EA6A104B62406E2476
:1029B000EB1814401C602E63F8BD0D4B0D4AEB184C
:1029C0001A606F6AAA6A0620BF01BF1800F034F9C6
:1029D000094900F029FBBF020100380000F024FB88
:1029E0000021FFF707FFDFE71400DAE72C100000F3
:1029F00030300000010300004E0E0000F8B54B1E01
:102A00009941066B05000C01F30708D41023E96A0D
:102A10004C401C400D4BEB181C602E63F8BD0C4B5A
:102A20000C4AC3181A60476A826ABF010620BF18A1
:102A300000F002F9084900F0F7FABF02010038007F
:102A400000F0F2FA0021FFF7D5FEDFE72C100000BE
:102A500030300000010300004E0E0000F8B5DE46E5
:102A60004E4657464546E0B58B4605000A99180084
:102A7000160000F0D9FA0A9B6C001F02324B641951
:102A80009C46A4006444636881469F4200D9676005
:102A90002B1FDBB29846012B30D9C02380229B012B
:102AA000E31812011A60294BAD0059599A460029C2
:102AB0001BD1226876017240E026802316404246F0
:102AC0005B01E3181E60012A30D9802380229B011C
:102AD000E31812011A6053464A4667605A51F0BC27
:102AE000BB46B246A946A046F8BD586900F09CFA1C
:102AF000431C5800C0180338FDD2DAE75B46012BAF
:102B0000CBD1C02303229B01E3181A60023AA368C9
:102B10001A42FCD0E0232268760156401E408023F2
:102B20000A4A5B019246E3181E60AD005A462168CE
:102B3000514003220A401A6001225B469A40A36872
:102B40001A42FCD0C1E7C046008000400C0F0020B4
:102B5000F0B546464F46D646C0B51F00344B44003C
:102B60009C462418A4006444636888461600FF2B22
:102B700002D880235B006360031FDBB29A46012BFF
:102B800030D9C02380229B01E31812011A60294B1F
:102B900085005959994600291BD122687601724057
:102BA000E0268023164052465B01E3181E60012A8E
:102BB00030D9802380229B01E31812011A60802300
:102BC0005B0063604B465F51E0BCBA46B146A84625
:102BD000F0BD586900F028FA431C5800C0180338AB
:102BE000FDD2DAE74346012BCBD1C02303229B0160
:102BF000E3181A60023AA3681A42FCD0E023226864
:102C0000760156401E4080230A4A5B019146E31834
:102C10001E60850042462168514003220A401A6026
:102C2000012342469340A2681342FCD0C1E7C0464C
:102C3000008000400C0F0020014B8000C0587047FE
:102C40000C0F0020F8B5040020481D0017000E00EE
:102C500000F0EAF90100380000F0E6F9069B2904CB
:102C60001B0319432368002B1EDB194B194DE21877
:102C700053425A4180235B019C461203164B624427
:102C80001A60164B1A6017002B689F43FBD1144B38
:102C90002660E2182123A06013602368002BFCDA71
:102CA0000823E1601360F8BD3F2322681340B3425C
:102CB000DBD1A3681B051B0D8342D6D1EE22E3684E
:102CC000D20213408B42D0D1EDE7C046001BB700C3
:102CD0000040FDBF08C0004000E0004000F00040A0
:102CE000043000008023024A9B000B43D3627047EC
:102CF00000800540142310B50100188804331B8898
:102D0000984710BD162310B50100188802331B88A0
:102D1000984710BDF8B54746CE4680B50F1E19D06E
:102D200014239946043304000025012698464B4697
:102D30001888434621681B88984701C4431E984160
:102D4000013540420640AF42F1D13000C0BCB94627
:102D5000B046F8BD0126F8E7AA23064A1B01136016
:102D60008D235B00D3600449044B19605368002B2A
:102D7000FCDA70470040024000B0FA0000600240F8
:102D80007047C04610B50148FEF77EFEFC84001077
:102D900070B5074D074EB54209D20024013E761B9F
:102DA000B60808CD984723000134B342F9D170BD6D
:102DB000608200109C820010054B064A06491A608A
:102DC000064A074B1A6010000B689843FBD1704706
:102DD00000E00040BFCDFBFE08C00040FE7F3C008D
:102DE00000F00040044BDB6C002B03D18022034B2E
:102DF000D2021A607047C046000011504C2011509A
:102E0000044A054B1A60054A1368DB018033FBD185
:102E10007047C046FFFFFF0100F0004008C00040BF
:102E20004022034B9A675A671A67DA667047C046B2
:102E300000F0014010B5FEF76DFE10BDF8B5274952
:102E4000274B284D5B1A9C082200302C00D93022D9
:102E50002800920000F09CFD2F2C3CD830202F2120
:102E6000A700EB195B07204A001BDB0F091B052994
:102E700017D92600002B01D0EA51661CC01AE318AE
:102E80009B004108EB18C900C9181A605A60083342
:102E90008B42FAD1012301009943741888421AD059
:102EA000A700EA51631C2F2C15D09B00EA50A31CED
:102EB0002E2C10D09B00EA50E31C2D2C0BD09B0035
:102EC000EA50231D2C2C06D09B00EA50631D2B2CAE
:102ED00001D09B00EA50054B9D60F8BD0001001039
:102EE000C001001000000020C101001000ED00E052
:102EF000002310B5294C82B0A367FFF72DFF0122F4
:102F0000274B1A60636C012BFCD10322254B1A60FE
:102F1000224A936B012BFCD1013300930121224AF9
:102F200022480433FFF78EFE052301210093204A37
:102F30002048FFF787FE0022022104201E4BFFF7E6
:102F400007FE0022012105201C4BFFF701FE002295
:102F5000002107201A4BFFF7FBFD0022002108206B
:102F6000174BFFF7F5FD8023DB00009300220021C3
:102F70000920134BFFF772FD0022104B00210620A1
:102F8000FFF7E6FD0420FFF757FE0E4900F04CF86E
:102F900001000020FFF7A6FE02B010BD0080004037
:102FA0003CB0004030B00040002F68590080024023
:102FB000008C864700C00240001BB70040597307D1
:102FC000006CDC0240420F0001480421014B18470D
:102FD00060020020152D0010124A936F9B0815D235
:102FE0009066D166002905D0FFE7FFE7FFE7516F44
:102FF000106F704704B580210906C21751400028A0
:1030000000D0C84305F014F9002104BDF0B5146EDA
:10301000556E576F166FFFF7E3FF146655665767D7
:103020001667F0BD000000D0114A936F9B0813D2C1
:1030300010665166002905D0FFE7FFE7FFE7516FF3
:10304000106F704704B5002801D00020C04305F080
:10305000EFF8002104BDC046F0B5146E556E576FF1
:10306000166FFFF7E5FF1466556657671667F0BDE4
:10307000000000D094464A4A926F9208624601D2FC
:1030800028E0C046F0B5464E346E756E776F366FE9
:1030900000F020F89446424A146655665767166752
:1030A0006246F0BD94463E4A926F9208624601D253
:1030B00054E0C046F0B53A4E346E756E776F366F99
:1030C00000F04CF89446364A146655665767166702
:1030D0006246F0BD002B24DB11D000293EDA00B59A
:1030E000C943404200D1013100F038F8C9434042A1
:1030F00000D10131DB43524200D1013300BD002A2F
:10310000EBD1002801D1002905D00020C90FC90743
:1031100001D1C043410800B505F092F80022002318
:1031200000BD00B500290ADBDB43524200D1013368
:1031300000F014F8C943404200D1013100BDC94339
:10314000404200D10131DB43524200D1013300F053
:1031500005F8DB43524200D1013300BD002923D1E1
:10316000002B18D1002A0CD0BC460D4F38667A6669
:1031700000210023FFE7FFE7FFE77A6F386F67461C
:103180007047002801D00748010000B505F058F845
:103190000022002300BD02000B0000200021704728
:1031A000000000D0FFFFFFFF002B00D0BFE0130C9A
:1031B00028D1002AE7D080B4114F39667A66FFE73C
:1031C000FFE730B4040C7B6F396F1B0423433B666D
:1031D0007A66FFE7FFE7FFE7C04684B27B6F3D6F8B
:1031E0001B0423433B667A66FFE7FFE7C0460023E4
:1031F0002C042D0C7A6F386F00196941B0BC7047F0
:10320000000000D0F0B594460025140E01D1120242
:103210000835140F01D112010435940F01D1920029
:103220000235D40F01D152000135D40B0134254FA2
:103230007C66254C3C660E0C93B2FFE7FFE7FFE788
:103240003C6F6643360C7703BE467343DF0B5B046B
:10325000C01AB941130C7343DB18C91ACE08664370
:10326000360CB64493B273431F0F1B01C01AB94109
:10327000130C73431F0B1B05C01AB941860D8F0237
:103280003E436643360C092D24DB520A7243801AF2
:103290007703460A6643360C16235B1BDE40DF408D
:1032A000BF1964466643821B70460435063301002D
:1032B000D940A840C01900D30131A24206D2002350
:1032C000F0BD0000000000D0FFFFFFFF121B013027
:1032D000F3D3F1E709277F1BFE406446A2B2724395
:1032E000801A00D20139220C7243130C1204821A84
:1032F00099410B007046043513370100F940A8408E
:10330000801900D30131002B02D1A2420AD2F0BDB4
:10331000013000D30131121BFAD2013BF8D1A24295
:1033200000D2F0BD013000D30131121BF7E7F0B538
:103330001C0C00D080E00CB400251C0A04D11B0238
:10334000160E3343120208351C0B04D11B01160F55
:103350003343120104359C0B04D19B00960F334379
:1033600092000235DC0B02D192185B4101351C0042
:10337000971864410134464F7C66464C3C660E0CFF
:10338000FFE7FFE7FFE7C0463C6F6643360C770375
:10339000BE4697B27743C01B00D20139C01B00D292
:1033A00001399FB27743C91BC91B170C77437E04B1
:1033B000FF0B801BB941CE086643360C0C2D33DB66
:1033C000B644120B1F053A431B0B97B27743C01B41
:1033D00000D201399FB27743C91B170C77433E04D3
:1033E0003F0C801BB941860D8F023E43664329275F
:1033F0007F1BFE400C3D7746AF40BF1930BCA2B2E8
:10340000ABB272437343801A9941220C7243130C7E
:103410001204801A994102000B000137001BA941D8
:10342000F9D2781E0021F0BD0C277F1BFE407746A5
:103430007F0BAF40FF19E0E700245D1C07D0144F5D
:103440007D663966FFE7FFE7FFE7FFE73C6F95B270
:103450009EB265436643401BB141150C1E0C65438B
:10346000664336042F0C3E432D04401BB141994264
:1034700004D202000B0020000021F0BD01D19042D7
:10348000F7D3801A994101349942F2D3F6E700004C
:10349000000000D0FFFFFFFF48404140484018B403
:1034A000134B5B68019308BD18B4114B1B68019363
:1034B00008BD94460F4A926F920805D2624618B42E
:1034C0000B4BDB68019308BD0A4AF0B5146E556ECC
:1034D000576F166F6246FFF7F2FF064A146655668D
:1034E00057671667F0BD18B4014B9B68019308BD80
:1034F000C80D0020000000D0FFB5504042405040B1
:1035000059404B40594000E0FFB5154F4C00640D49
:1035100003D0BC4204D10C0314D80020090D0905C6
:103520005C00640D03D0BC4204D11C030AD8002205
:103530001B0D1B0501264B4009D44B4003D58B4284
:1035400000D18242FFBD9942FCD19042FFBD0B43A6
:10355000DB1803431343F5D0C9434918FFBD0000EE
:10356000FF07000000B5FFF7CFFF01D0002000BD2E
:10357000012000BD00B5FFF7C7FF804100BDC04678
:1035800000B5FFF7C1FF01D9002000BD012000BD3B
:1035900000B5FFF7B1FF01D9002000BD012000BD3B
:1035A00000B5FFF7A9FF804100BD012040054A009A
:1035B000121804D85A00121801D8002070470120B0
:1035C000704700000021002805D17047C11748400E
:1035D000401AFAD0C90713B5064B1B6898470CBCB4
:1035E000441CA2401005120B0349091B090519438D
:1035F000114310BD8C0F00201F04000010B54C00BB
:10360000620D8023D218DB00D21A5B057E2A10DD02
:103610009E3A13DACC170903490819435242D140A4
:10362000640001341532202A05DAD0400843604393
:1036300010BD002010BD0846604310BDC80FC01863
:10364000013810BD18B4024B5B6A019308BD00003D
:10365000C80D002018B4024BDB6D019308BD0000BB
:10366000C80D0020C94211D300B549004908002205
:1036700000F014F8002904D4002240428A41114687
:1036800000BD80210906002000BD000018B4024BD7
:10369000DB6E019308BD0000C80D002018B4024B7A
:1036A0009B6F019308BD0000C80D002018B4024BA9
:1036B000DB6F019308BD0000C80D002010B5014864
:1036C000FEF7E2F908850010132370B51D78012D6F
:1036D00015D039DD1E48FFF715FB06001D48FFF722
:1036E00011FB1D4C80223100200000F051F9022D09
:1036F00027D01A48FFF7FEFA194B186070BD194B16
:10370000154C23606360A360E36023616361A36180
:10371000E36123626362A362E36223636363A3637F
:10372000E36323646364A364E36423656365A3655F
:10373000E36523666366A366E36623676367A3673F
:10374000E367094BA364D4E7034C074BA364D0E7BA
:103750005344000053460000C80D00204C330000C5
:103760008C0F0020BD3600106D37001007B5604685
:1037700001880A0A0230DF2AFAD1C9B2820804D3CA
:10378000028840880004104300E00068014A50505D
:10379000039007BDC80D002051434343C9188C4610
:1037A000110C83B24B4310B4040C614392B280B24B
:1037B000504362431C041B0C001910BC59411304F4
:1037C000120CC0185141614470470000484041400C
:1037D00048400E4B5B6818470C4B1B6818470C4A57
:1037E000936F9B0802D2094BDB681847F0B5146E43
:1037F000556E576F166FFFF7F6FF054A146655664C
:1038000057671667F0BD014B9B681847900F002063
:10381000000000D007B548404140484001E0C046A4
:1038200007B54200120E03D0FF2A03D1420218D876
:10383000C00DC0054A00120E03D0FF2A03D14A0270
:103840000FD8C90DC9050122414005D4414001D519
:10385000814207BD884207BD0143491801D0C043DA
:10386000001807BD00B5FFF7DBFF804100BDC04673
:1038700000B5FFF7D5FF01D9002000BD012000BD34
:1038800000B5FFF7C7FF01D9002000BD012000BD32
:1038900000B5FFF7BFFF804100BD01231B064200BA
:1038A000D21804D84A00D21801D80020704701204D
:1038B0007047491A002807D108467047C10FC90749
:1038C00000D54042002817D0F44603B40B4B1B68C8
:1038D000984706BC81409E384042803107D20B0693
:1038E00007D04900490AC00510430843604701302A
:1038F000F8E7490A8902F5E7704700008C0F0020BD
:10390000014B5B6A18470000900F002010B501487A
:10391000FEF7BAF814880010132310B510481C786D
:10392000FFF7F0F90100012C0AD003DD80220D48D9
:1039300000F02EF80C48FFF7DDF90C4B186010BDB5
:10394000084C5422200000F023F82300084A80335A
:103950002168002900D122600434A342F8D1E9E7AC
:1039600053460000900F00204C3300008C0F0020C5
:103970000D39001001480421014B18477002002046
:10398000152D0010014B1B68184700007002002025
:10399000014B5B6818470000700200209A4200D279
:1039A000885470477047C046F8B557464E4645465E
:1039B000DE46E0B599460A9B07009A460D9B88466D
:1039C000934615000B9E9B0710D10C9B9E420DD277
:1039D0009D1B14000E005D4422004B460134310053
:1039E0002020B847A542F7D1B0460B9E002E27D025
:1039F000444675195346AA1B013E985D21004B466B
:103A0000B847002EF6D123002C0098460D9B9B074B
:103A10000FD55B46E51A0C9BAB420AD94646984641
:103A200022004B46310020200135B8470134A8451B
:103A3000F6D82000F0BCBB46B246A946A046F8BD69
:103A40002C00E3E7F0B54F464646D646C0B584B0F5
:103A500098460EAB1B78129F994694460D9C109B7E
:103A6000119EBA0725D4002E4BD19C4200D3BFE053
:103A700001223A4092461F2C00D9B8E00C9A551EFC
:103A8000302201E0202C03D001342A55A342F9D87A
:103A90005246002A0DD0A6420BD9202C44D00C9AB5
:103AA000551E302201E0202C3ED001342A55B4426C
:103AB000F9D1FA064DD57A053FD4002C39D10F9BA8
:103AC000102B00D179E00F9B022B00D18AE030232C
:103AD0000C9A012413704B46002B3FD02D230C9AD7
:103AE000135501340C9B624600930397434602969C
:103AF0000194FFF759FF04B0E0BCBA46B146A846AE
:103B0000F0BD012215003D40AA463A422FD04A4658
:103B1000002A02D10C323A4200D0013E9C42BAD275
:103B20001F2CABD9202E27D92024FA06DAD57A0506
:103B300003D4A3422DD0A6422BD00F9B102B32D002
:103B4000022B20D0202CCDD030220C9B1B191A70B8
:103B50000134202CC6D04B46002BBFD17B070DD49F
:103B60003B07BFD520230C9A13550134BAE79C427A
:103B70009FD21F2C00D881E720249AE72B230C9A90
:103B800013550134AEE7202CACD00C9B1B1901342B
:103B90003AE0631E012C92D00F9A102A2AD0022AF2
:103BA0002FD01C00D0E7BB060ED4202C9AD00C9B43
:103BB0001A19013478231370C4E7BB060DD4782397
:103BC0000C9A01241370BFE7202C00D18AE75822F9
:103BD0000C9B1B191A700134B4E758230C9A01246A
:103BE0001370B1E70C9A603301241370ACE7202402
:103BF00000265EE7023CBA06E9D40C9A12191C00B2
:103C0000D8E70C9A9246534462221A709AE7C0464B
:103C100010B5002800D110BD01F0F6FAFBE7C04650
:103C2000F0B5DE4657464E464546E0B59BB09B464E
:103C3000249B89469846259B0B900C924046424611
:103C400019009A46FFF7B1FC002800D0D8E0012205
:103C500040465146774B5242FFF7A2FC002800D065
:103C6000CEE0012240465146734B5242FFF782FCA0
:103C7000002800D0C4E00022002340465146FFF750
:103C800079FC002800D0B9E1424653460A920993D4
:103C90008023289ADB001A400E92289A1A4201D1FA
:103CA000062326930A9A099B1600134300D0C7E007
:103CB000289B002500261B0500D49BE100230D93C3
:103CC000269A0D9B9A4200DC9FE1D01A431E269350
:103CD0008023289ADB001A430023002728920D93A3
:103CE000279B0024BB4200D9DC1B0223289A1A40E0
:103CF0000E92289A134203D07B427B415B421C40C8
:103D00000D9B002B07D00A9809992A003300FFF772
:103D1000D0FB0A9009910022002340465146FFF74C
:103D200029FC002805D080200006844609996144BA
:103D30000991289A414B0B9D13400493269B0A9AA4
:103D40000293099B03940092019349465B46280025
:103D50000C9A00F08BF90400002F62D0289B2200FF
:103D600098061F23C0179843631C984649465B4634
:103D70006530A8470D9B0025DA179C18DB0F9A4683
:103D80005440013F01E0202D13D00AAA94461F237E
:103D9000200063440A2101355E19FFF745F93031EF
:103DA000317020000A21FFF73FF926000400092E98
:103DB000E9D805230693002304930A33039353465B
:103DC00005970B9F029312AB009342465B46494610
:103DD00038000195FFF736FE0E9B0400002B20D023
:103DE0000C9BC51A279BAB421BD91E0022005B46C9
:103DF000494620200135B8470134AE42F6D810E0DC
:103E0000289B42460493279B49460393269B0B9885
:103E100002935346009201935B460C9A00F026F9F8
:103E2000040020001BB0F0BCBB46B246A946A04629
:103E3000F0BDC046FFFFEF7FFFFFEFFFFFF7FFFF83
:103E4000734B099F9C467800400D6044FFF7BEFB12
:103E5000704A714BFFF747FB704A714BFFF724FB29
:103E60003B03704A1B0B1A4304000D003000110085
:103E70006D4B0022FFF713FB6C4A6D4BFFF733FBD2
:103E800002000B0020002900FFF70EFBFFF7B6FB36
:103E90000D90FFF79BFB674A674B04000D00FFF78F
:103EA00022FB0022654BFFF7FFFAFFF7A7FB644AEE
:103EB0000600644B20002900FFF715FB04003000CA
:103EC0000D000F96FFF782FB5F4A604BFFF70BFB7D
:103ED00002000B0020002900FFF7E1FA02000B00AE
:103EE00006000F00FFF7FFFA320004000D003B0050
:103EF00030003900FFF7D8FA002210901191544B8E
:103F000020002900FFF7D5FA0022524BFFF7CCFA28
:103F100002000B0020002900FFF7CBFA00224E4BD5
:103F2000FFF7C2FA02000B0020002900FFF7C1FAD8
:103F30000D008021040032003B000020C905FFF77E
:103F4000AEFA02000B0020002900FFF7ADFA0200D4
:103F50000B0010981199FFF7ACFA0022314BFFF7D4
:103F6000A3FA3E4B0F9C9C46644400222305FFF7B6
:103F7000BAFA05000E0002000B000A980999FFF733
:103F8000F9FA00280AD00D9B2800013B31000D935F
:103F90000022304BFFF78DFA05000E00C6270D9961
:103FA0002B0063318F42BF4128997F4204370905B6
:103FB00000D495E6334300D182E6099C284A2100CB
:103FC000284B0A98FFF7E4FA002808D000222100C5
:103FD000254B0A98FFF7CEFA002800D070E6269B02
:103FE000002B00D17CE60E9B5A1E9341269AD31AD1
:103FF000269375E6002304270D9371E643460A9342
:1040000080231B065344099342E6002326935FE670
:1040100001FCFFFFFB799F501344D33FB3C8608B73
:10402000288AC63F0000F03F0000F83F61436F63FD
:10403000A787D23F71A379094F930A400000E03F60
:104040001655B5BBB16B0240EF39FAFE422EE63F82
:1040500000002C400000244000001840FF03000036
:104060002D431CEBE2361A3F80842E41F0B54E46BC
:10407000DE4657464546E0B597B09946209E219FBB
:10408000229B8346984607910C923B0032003000F9
:104090003900FFF78AFA002800D0A9E10122300098
:1040A0003900CA4B5242FFF765FA002800D0E1E020
:1040B000012230003900C64B5242FFF771FA002846
:1040C00000D0B7E0002230003900C24BFFF768FA99
:1040D000002800D099E0002230003900BE4BFFF7E5
:1040E00049FA002800D090E0002200233000390077
:1040F000FFF740FA002800D0B1E000230D93249B85
:104100005B0501D40623984608AB9C461722002481
:1041100030234146624404E0013413550139202C18
:1041200001D00929F8D8884630003900FFF766FA2F
:104130004346DA00A94B05009B181A685B68089291
:104140000993FFF743FA02000B0030003900FFF734
:10415000A6F9089A099BFFF7C6F90A900B91FFF799
:1041600071FA8246FFF72EFA02000B000A980B99AB
:10417000FFF795F900229A4B0A900B91FFF710FA7E
:10418000002800D1C0E001239C46E2445046FFF7DE
:1041900019FA02000B0008980999FFF7F1F90028B5
:1041A00002D000239A4601354346002B6AD008AB63
:1041B00017269C4608956644554614E001235B4249
:1041C00043440A2128009A46FEF72EFF013430317D
:1041D0003719397028000A21FEF726FF092D00D86B
:1041E000D0E0D0460500202CE8D10EAB9846032342
:1041F000249A1340012B00D196E02023249A0193A6
:104200000392239A434602921EE0249B584604934D
:10421000239B00960197039343460C9A02930799B8
:104220004B46FFF7FDFC17B0F0BCBB46B246A946B3
:10423000A046F0BD249B5B070ED40322694B249952
:104240000192039123990291009358464B460C9A90
:104250000799FFF7A9FBE6E70422634BEFE73B0072
:10426000320000200021FFF71AF9012306000F0099
:104270000D9344E7249B0393239B02930423019310
:104280005A4BE1E72800FFF7A1F902000B003000CC
:104290003900FFF704F9524B002206000F00FFF728
:1042A00069F90EAB984600280AD100223000390087
:1042B0004B4BFFF775F9002802D1EB0700D501350C
:1042C000202C94D008AA94461723280063440A217E
:1042D00001341E19FEF780FE3031280031700A21AA
:1042E000FEF77AFE051EEBD10323249A1340012B1F
:1042F0001BD0202C00D180E70D9B002B35D02D2228
:104300004146631C0A5579E700220A980B99344B01
:10431000FFF730F9002800D046E75346002B51D173
:1043200001239C46E2443FE72024239B002BE0D05E
:104330000D9B002B03D1249A0C33134202D0239BF4
:10434000013B2393239BA342D3D908AB9C4617225E
:1043500030236244202C00D14FE7239901341355B8
:104360008C42C6D0202CF8D147E7249B5B0724D48D
:10437000249A2300120700D440E72022414601334B
:104380000A553BE75746089D202C00D12DE7220017
:1043900030214046002F09D00132B154202A00D1EB
:1043A00023E7D3431B191B18002BF5D10EAB9846FE
:1043B0002E234146541C8B5482E72B224146631C1A
:1043C0000A551BE7DB0700D4EEE6A9E7FFFFEFFF86
:1043D000FFFFEF7F65CDCD4165CDCDC1B887001022
:1043E0000000E03FC0850010C4850010D08500109B
:1043F000249B0393239B029303230193004B23E706
:10440000CC850010F0B5DE464E4657464546E0B531
:104410009FB01C00289B91460993C94AC94B8B4603
:1044200008901A60002900D118E2002320789A46EB
:10443000002800D11AE226001D005C460AE02A008E
:104440006F1C4B46089D2100A8473D00013630787F
:10445000002870D02528F2D110239B46083B9A46AD
:10446000043B9846023B00219C46721C10781600C3
:104470000300203BDBB2102B03D8B34F9B00FB584B
:104480009F460300303B092B32D900230A932A2888
:1044900068D0002398462E283ED00300683BDBB24C
:1044A000122B1CD8A94A9B00D3589F4601230132E6
:1044B0001943DBE7634601321943D7E7434601322C
:1044C0001943D3E75B4601321943CFE75346013224
:1044D0001943CBE780235B00707819430136030052
:1044E000253BDBB2532BAAD8994A9B00D3589F4651
:1044F00000270300B800C01901364000C018337807
:1045000030381A00303A0700092AF3D90A90180007
:10451000002398462E28C0D180237078DB001943F1
:104520000300303B721C092B00D8A1E12A2800D1DE
:10453000B2E11600B1E7A346AA462C00D14503D844
:1045400001235B424B449A464B4652465946002053
:10455000089DA84720001FB0F0BCBB46B246A94644
:10456000A046F0BD099B40CB0A96002E03DB507895
:104570000993561C8DE72838014370420A9009932D
:104580005078561C85E7782800D1DFE1582800D103
:104590004CE26F2800D14FE3622801D100F030FCDB
:1045A00010230A009A430B92692801D000F0A9FC5D
:1045B0000A230C934B0500D5D0E10B9A8023110000
:1045C0009B0019408B461A4200D0A1E280231100C3
:1045D0005B0019408A461A4200D0B6E313005B061E
:1045E00000D5EDE2130009991B0601D400F076FC1A
:1045F00008C91BB2D8171A18424092B209919346C3
:10460000DA0F1292002B09D1802310220B99DB00C4
:104610000B4091430B91002B00D0E4E20B9A6123F5
:10462000920600D541230EA91F228C46DBB26244BC
:104630000A3B5F461395A34655460C9CB2460D9324
:1046400016000AE03033DBB201357355A74200D2C1
:10465000EDE2202D00D1EAE2070021003800FEF74C
:10466000E3FCCBB20929EDD90D9A94466344DBB241
:10467000EAE780239B007078194301362FE77078B2
:10468000682800D1CDE180230136194327E77078EF
:104690006C2800D1BFE180235B00194301361EE77F
:1046A000462800D19BE10722099B049107339343DD
:1046B0000A9A19000392424602920CC90898009285
:1046C000019309912A004B462100FFF7CFFC0136E8
:1046D0000500BCE62A006F1C4B46089D21002520E2
:1046E000A84701363D00B2E68B0700D4ADE1099B37
:1046F0002A009A466B1C9846534601CB21009A46E5
:10470000089F4B46C0B2B8470A9B9C466544012BA4
:1047100000D886E2089B4746B04626004C4699469C
:104720003A002300013731002020C847AF42F7D1BB
:10473000A1465346340046460993013687E6C046F3
:1047400005440010400F0020D88500101C86001082
:1047500068860010099B04CB9B4643460992002BB8
:1047600000D1C6E013789C46002B00D1BDE3434640
:10477000013B099A0133D0180A9F130001E08342DC
:1047800003D05A780133002AF9D1099A0A979B1A63
:104790000B9380230A00DB001A400C92194204D0CC
:1047A0000B9B434501D943460B9302231A000A4051
:1047B0000D920B4200D187E16046002800D168E1EC
:1047C0000C9B002B00D10DE1A844C246099B574623
:1047D0005B1B9846089BB2462A0026004C46994629
:1047E00009E023003100551CC8474346585D0028A6
:1047F00000D126E12A009742F3D1A1463D003400C2
:1048000056460D9B002B00D043E15B4601360993D1
:104810001DE6099B1A0008CA9246002B48D02122A7
:1048200011438B460EA884461F216144099500223E
:104830000F27A4460D0002E0202A0CD00B003C00FC
:104840001C4020003730092C00D807380132A8540A
:1048500019090F2BF0D86446099D32E0DC4B207813
:10486000089300239A46002800D0E4E5002465E67A
:10487000434606000A9F9800C01801324000801984
:104880001678030030003038303B0928F3D9300067
:10489000984616000A9700E6099B023604CB90461C
:1048A000D2434046D2171040804609933078F4E551
:1048B000102208009043113210438346002249051C
:1048C000B0D55B4606930823059343460493102313
:1048D00003930023029316AB019200932A004B46E8
:1048E00021000898FFF7AEF85346050001360993FA
:1048F000ADE513789C46002B00D1F7E202235B4222
:1049000037E7202302009A43472A04D180231B0162
:10491000194302239843452801D120231943072234
:10492000099B0491073393430A9A19000392424664
:1049300002920CC908980092019309912A004B46F3
:104940002100FFF76DF90136050080E510230C9377
:104950000C230A009A430B924B0503D501230B9AB3
:104960009A430B92692800D127E6642800D124E6F7
:104970000B9A802311009B0019408B461A4200D0ED
:1049800066E1802311005B0019408A461A4200D07C
:1049900039E213005B0600D53CE113001B0600D48E
:1049A000A6E2099B04CB1204120C934609935B46C2
:1049B000002B00D09AE10B9A1033110099430B9110
:1049C000520500D492E100239A460B9B06930A9B62
:1049D0000593434604930C9B039300230CE120238F
:1049E000194360E6099B0A9A5B1B98464B46914621
:1049F0001F00B2462600089C2A003B003100A04759
:104A000043460135585D0028F6D14A463400B94680
:104A100056460A92F5E6C0239B00B0781943023649
:104A20005DE5C023B0781943023658E50C230A002F
:104A30009A4314331A43103B0B920C934B058DD4BD
:104A400096E7A14634005646DBE60A9A012A00D8CA
:104A500053E26B1E9F18089BB04626004C469946B1
:104A60002A002300013531002020C847BD42F7D17C
:104A7000A14634004646099B3A0001CB21009846E6
:104A80007D1C4B46089FC0B2B84743460136099388
:104A9000DDE40B9B0A9AA8469A4200D8B5E69446F4
:104AA0006544ED1A089B4746B04626004C46994699
:104AB0003A002300013731002020C847AF42F7D128
:104AC000A14634004646A0E60B9A0A99531C91422F
:104AD00000D814E24B199B1A1F00089BB24626000F
:104AE0004C4699462A002300013531002020C84752
:104AF000BD42F7D10A9BA14601330B93099B3400B9
:104B00001B7856469C466046002800D058E67CE656
:104B10000722099B07339343013294469C44624623
:104B20005F6809921A68FB171093119310981199F6
:104B3000030053400E930B007B400F9394460E9A54
:104B40000F9B121A8B410E920F93FB0F624612932A
:104B500000233A439B463DD00B9A6123920600D531
:104B600041230022DBB20EA90A3B8C4692460D93EC
:104B700043461F3262441395159655460E9E0F9F6D
:104B8000A24690460C9C14930CE03032D2B24346BD
:104B900001355A55BB4500D18AE1202D00D18AE16B
:104BA00006000F002200002330003900FEF77AFAD9
:104BB000D2B2092AE9D90D9B9C466244D2B2E6E7FB
:104BC000FF23099904C913401A00099117E5C0464B
:104BD000A53900100B9A1033110099430B9152051F
:104BE000BAD500239A460B9B06930A9B059343462E
:104BF00004930C9B0393129B02935346019316ABB1
:104C00002A00009321004B460898FEF71BFF01364F
:104C100005001CE4FF22099B02CB11408B4609933F
:104C2000C5E65346454609930136FFF710FC564644
:104C30005C46AA46139DD6E708230C930B910B996B
:104C4000642800D084E60B9B5B0500D586E6B4E4BF
:104C50000722099B07339343013294469C446246E2
:104C600009921A685B6810009B4613005A4613436A
:104C700007D10B9A1033110099430B91520500D5BF
:104C8000A1E60B9A6123920600D541230022DBB2F4
:104C90000EA90A3B8C4692460D9343461F3262444E
:104CA0005F461295A34655460400B24690460C9EB8
:104CB00013930DE03032D2B2434601355A550023EA
:104CC000BB4200D100E1202D00D100E104000F0023
:104CD0003200002320003900FEF7E4F9D2B2092A9D
:104CE000E8D90D9B9C466244D2B2E5E70B9A61235A
:104CF000920600D54123DBB20EA90A3B1F228C4647
:104D00000D93230062445C461295170055469B465E
:104D1000B2460C9E08E03033DBB201357B55B4421D
:104D20000ED3202D0CD0040031002000FEF77CF9BA
:104D3000CBB20929EFD90D9A94466344DBB2ECE774
:104D400056465C46AA46129D3FE6099B1A0008CAD1
:104D5000D91713925A184A409246DA0F1292002B32
:104D600008D1802310220B99DB000B4091430B915B
:104D7000002B2BD10B9A6123920600D541230EAA5A
:104D80001F279446DBB20A3B0D9567445D460993A5
:104D9000A3465446B2460C9E08E03033DBB20135E0
:104DA0007B55B4420ED3202D0CD0040031002000DE
:104DB000FEF73AF9CBB20929EFD9099A9446634430
:104DC000DBB2ECE756465C46AB460D9D0B9B2A00DA
:104DD00006930A9B21000593434604930C9B089875
:104DE0000393129B013602935B46019316AB00932B
:104DF0004B46FEF727FE139B05000993FFF727FBA1
:104E000002230C931AE7099B04CB92461293002AC3
:104E100008D1802310220B99DB000B4091430B91AA
:104E2000002B2BD10B9A6123920600D541230EAAA9
:104E30001F279446DBB20A3B0D9567445D460993F4
:104E4000A3465446B2460C9E08E03033DBB201352F
:104E50007B55B4420ED3202D0CD00400310020002D
:104E6000FEF7E2F8CBB20929EFD9099A94466344D8
:104E7000DBB2ECE756465C46AB460D9D0B9B2A0029
:104E800006930A9B21000593434604930C9B0898C4
:104E90000393002302935B46019316AB00934B46AA
:104EA000FEF7D0FD129B050009930136FFF7CFFAFC
:104EB000B44200D871E6149B54460E960F97AA464A
:104EC0009846159E139D8EE6A64200D8FBE6139BDE
:104ED00056469846AA465C46129D76E508C9D817FC
:104EE0001A1842400991FFF78AFB00230B9350E404
:104EF000099B04CB9346099359E52F00BBE50B931F
:104F000001E6063B0C939AE60CB410B584B006ACEF
:104F100008CC0A000094010004480394FFF772FAD9
:104F200004B010BC08BC02B01847C0469D39001040
:104F30000FB410B50C4984B006AA08CA0C680392D5
:104F4000002C0BD0009201220848524202A9A0472F
:104F5000012004B010BC08BC04B01847180000F0D1
:104F60009FF90020F5E7C046400F0020113C0010DB
:104F700010B5094A0300146884B0002C08D001223F
:104F800000910648524203A9A047012004B010BD79
:104F900000F086F90020F9E7400F0020113C0010D6
:104FA00000BEFDE77047C046094A030010680028AC
:104FB00005D00849C3188B4207D8136070470648CC
:104FC0000449C31810608B42F7D901204042F5E72D
:104FD0003C0F002000000420A010002010B5FFF7B7
:104FE000DFFFC04610B50C0082B01900002A0AD0BD
:104FF000064B01920093020023000548FFF798FF3B
:105000000120FFF7CDFF034B1A00F2E708880010DC
:10501000188800101488001070B5FDF7B9FE074D10
:10502000074EB54209D20024013E761BB60808CDD2
:10503000984723000134B342F9D170BD9C8200101F
:105040009C820010030010B5080011001B689847EF
:1050500010BDC046F0B546464F46D646C0B5437D66
:1050600080460E001700002B46D0002A3FDD4B1E65
:105070009946244B0125002400209A460DE04B461A
:105080001B5D0D3B5A425341325DDBB20A2A0BD005
:105090002B00013401359F421ADD002CEFD143462D
:1050A000325D1B7D0A2AF3D1002BF1D1A04204DA34
:1050B0004346211A1B6830189847434650461B68E0
:1050C00002219847013428002B0001359F42E4DC7F
:1050D000874204DD4346391A1B6830189847F61991
:1050E000013E33780D3B5A42534142461375E0BCB2
:1050F000BA46B146A846F0BD036811003000984793
:10510000F5E7C04648880010F0B5DE4657464E46E3
:105110004546E0B585B017001C0006000D00FDF700
:105120005FFB0023314A12184B41002B59DB3049F9
:1051300008008A4603F08CF801906B1C03D1300004
:1051400000F00EFC0500002C26D12A4B98462A4B75
:105150001C68002C15D0002F21D1284F02E02469B3
:10516000002C0ED02368002BF9D03B68002B01D017
:10517000A342F4D120002A003100C0472469002C4A
:10518000F0D1019B002B28D1280005B0F0BCBB4614
:10519000B246A946A046F0BD194B9846D7E7174B33
:1051A000994602ABDF1D0A239B4602E02469002CCE
:1051B000E7D02368002BF9D04B461B68002B01D0A9
:1051C000A342F3D12A0031002000C0475B460122F0
:1051D000390020003B70C047E8E7504603F020F854
:1051E000D2E70122074B5242A1E7C04640420F00DE
:1051F000300C002045500010340F0020380F0020E4
:1052000055500010FFFFFF7FF0B5CE46474680B5F2
:1052100083B06B460600DD1D2870FDF7E1FA002320
:105220001A4A12184B41002B2BDB194908008846FB
:1052300003F00EF8174B81461C68002C14D0164F53
:1052400002E02469002C0FD02368002BF9D03B68C2
:10525000002B01D0A342F4D1200001222900FFF746
:10526000F9FE2469002CEFD14B46002B05D130000C
:1052700003B0C0BCB946B046F0BD404602F0D0FF16
:10528000F5E70122054B5242CFE7C04640420F00EE
:10529000300C0020340F0020380F0020FFFFFF7F6C
:1052A00070B5040000F05CFB012301000500012241
:1052B0002000FFF729FF084B1C68002C06D063680C
:1052C000002B05D098472469002CF8D1280070BD28
:1052D0002469002CF3D1F9E7340F002010B55143B5
:1052E00000F02AF8041E0ED00300083B5A6803237E
:1052F0009A43043A242A15D80300132A05D8002219
:105300001A605A609A60200010BD002108330160C5
:1053100041601B2AF3D98160C160242A06D00300B2
:105320001033ECE70021FEF72DFBECE703000161F1
:1053300018334161E3E7C046F0B54E464546DE46C8
:105340005746E0B50D000B35060083B0162D22D868
:10535000102900D9B2E000F0A9FA10251823022084
:10536000CC4FFB181A005C68083A944200D1B5E0B3
:10537000032362689A431300E268A168CA609160DF
:105380000122E318596830000A435A6000F090FA8D
:105390002000083095E007239D4300D58EE0A94208
:1053A00000D98BE000F082FAFC235B009D4200D222
:1053B000A1E1680A00D18BE0042800D974E1382308
:1053C0009846A80980443930C100B24F79184C681A
:1053D0000839A1420ED003239C4604E0002ACBDA10
:1053E000E468A14206D06246636893435A1B0F2AC1
:1053F000F4DD40463A003C690832944200D178E03E
:1054000003236168994389460B00491B0F2900DD7E
:1054100075E17A613A610029B2DA80229200914501
:1054200000D310E15909DA0801238B40D2007968D2
:10543000D2190B4391687B60E260A1609460CC60FC
:10544000012182109140994259D80B4205D1032283
:105450009043490004300B42FBD003239846C3001D
:105460009946B944CC4682466346DC68A44507D1D8
:1054700026E1002A00DB2FE1E468A44500D11FE10A
:105480004246636893435A1B0F2AF2DD012080468F
:10549000611905436560A068E5680837C560A860C4
:1054A00040461043F960B9604860CF6030008F60BB
:1054B000E25000F0FDF92000083002E00C2300204B
:1054C000336003B0F0BCBB46B246A946A046F0BD6F
:1054D00080213F2340209846890076E7DC6802302F
:1054E000A34200D044E73A003C690832944200D01D
:1054F00086E701217B68821091409942A5D9032358
:10550000BC6862689A439146954203D8531B0F2B9F
:1055100000DD8AE023004B445F4A01935F4B9346D2
:105520009A4612681B68EB18013200D136E15C4ADA
:10553000944663441B0B1B0300933000009900F05A
:10554000B9F903008046013300D1F3E0019B8342A7
:1055500000D9EDE052460098526803009446514647
:1055600063444B6001991A00414500D14BE15B4611
:105570001B68013300D150E1434601995B1A9A1828
:1055800053465A600723424641461A400192194247
:1055900000D10DE108239846881A424B00998044B7
:1055A00041449B1A5B1A1B051B0D0091300019002A
:1055B0009B4600F07FF9431C00D14AE14346C01AE4
:1055C00003005B440093534652465B6801215B44F1
:1055D000536042464046BA60009A0A434260BC4269
:1055E00000D11EE14A460F2A00D81CE107200C3AE0
:1055F000824360680140052011436160A118486042
:1056000088600F2A00D92FE142464446526851462D
:10561000C96A994201D25146CB625146096B9942FF
:1056200000D389E051460B6386E001222900134331
:105630001143651961603000BD606B6000F038F99E
:10564000200008303DE75A0A042A6BD9142A00D9F1
:10565000BEE011005C325B31D20008235B429C4605
:10566000BA18944463469A6803239846944500D137
:1056700097E0434651689943494502D99268944559
:10568000F7D1D3689C467B686146A260E1608C607C
:10569000D460D5E6B8060020B0060020C80E002071
:1056A0000F10000008100000142852D9542800D907
:1056B00096E06E239846280B80446F30C10084E644
:1056C00008239B46073BDC449B46DA44434652464C
:1056D000134200D0C8E64CE00122E31859683000BC
:1056E0000A435A60E368A268D3609A6000F0E0F869
:1056F00020000830E5E62B00E808083330E60123F7
:1057000060191D43656078613861C26082601A006B
:105710004B460A4342603000E15000F0C9F82000D7
:105720000830CEE69A09110039323831D20094E7B8
:10573000BC4260D0BC68626803239A43531B954205
:1057400002D80F2B00DD70E7300000F0B1F8002028
:10575000B7E65B23984680445C30C10035E60823F9
:105760005B429C46E1444B469B6801384B4500D068
:1057700097E043460342F2D17B688B437B6049004C
:10578000994200D9BBE6002904D1B8E60422944628
:105790004900E2440B42F9D0504660E610330093D2
:1057A000CBE68910023B8B4079680B437B606BE74B
:1057B000009B300043445B421B051B0D19009B46B8
:1057C00000F078F8431C00D0F8E600239B46FAE688
:1057D000542A2AD81A0B11006F326E31D2003CE7DE
:1057E000AA235B0098422AD8DD3B9846E80B804408
:1057F0007830C100E9E553465B68009A9C46534601
:1058000062445A60B3E6090500D0B0E60200BC6805
:105810004A4401310A436260F9E65B4642461A6037
:10582000B0E64446F3E641608EE7AA2149008A4289
:1058300024D8DA0B110078327731D2000DE71A4BF9
:10584000984224D87C239846A80C80447D30C1001F
:10585000BBE5009A019B94464246083B63449B1A71
:10586000009300239B46AEE621003000083101F092
:10587000C3F95346BC685B686268C8E60A498A4255
:105880000BD89A0C11007D327C31D200E5E6FE2166
:105890007E237F209846890097E5FE227E21920094
:1058A000DBE67B686BE7C046540500007047C046E6
:1058B0007047C046002370B5064D040008002B60F9
:1058C000FFF772FB431C00D070BD2B68002BFBD090
:1058D0002360F9E7FC0E0020024670B50A439207E8
:1058E0002AD11E4DEE0104C808C9541B944334400C
:1058F00017D0D0B2D9B2401A2106014310D190B2CC
:1059000099B2401A210401430AD110021902000A77
:10591000090A401A2102014302D1100E190E401A41
:1059200070BD9A42DFD010BA19BA884201D901205D
:1059300070BD0020C04370BD02780B78013001318A
:10594000002A09D09A4207D102780B780130013140
:10595000002A01D09A42EFD0D01A70BD0101010196
:1059600010B583070AD00300032102E001330B4284
:1059700005D01A78002AF9D1181A10BD0300196849
:105980000C4A0D4C8A188A4322420FD15968094AA1
:1059900004338A188A43224208D15968054A0433DD
:1059A0008A188A432242F1D000E001331A78002A93
:1059B000FBD1E1E7FFFEFEFE80808080F0B5DE4691
:1059C000574645464E461C000023E0B5A1B01C9347
:1059D000BB4B82461B680D00180008920793FFF727
:1059E000BFFF0022002383462F0004920593B54A8F
:1059F0001B953B782D2B02D8990051588F460022D9
:105A0000099200220A92302B00D1E5E01C002F2BD6
:105A100001D800F07CFD0022AC46380000261900B9
:105A200015000BE0013093009A181B900478520087
:105A30005218303A210001362F2C10DD392C5BDC56
:105A4000082EEFDDAB005B1901305B001B905B188B
:105A50000478303B1D00210001362F2CEEDC9046EF
:105A600007995A46A946654602F088FB002800D1EE
:105A7000BAE20D96002300209C4610930B93002E53
:105A800000D027E10A9B034300D09CE26346002B31
:105A90001ED1692C01D100F0B4FC17DC492C01D1D6
:105AA00000F0AFFC4E2C13D187491BA801F0BEFCBF
:105AB00000280DD01B9B1B78282B01D100F054FE31
:105AC000824802F051FB83460F007FE26E2CEBD040
:105AD000089B002B02D0089B1D6000239B460027DB
