:020000041000EA
:1000000000B5324B212058609868022188439860DF
:10001000D860186158612E4B002199600221596106
:100020000121F02299502B49196001219960352056
:1000300000F044F80222904214D00621196600F024
:1000400034F8196E01211966002018661A6600F04E
:100050002CF8196E196E196E052000F02FF8012189
:100060000842F9D1002199601B49196000215960AB
:100070001A491B48016001219960EB211966A021F2
:10008000196600F012F800219960164914480160C1
:100090000121996001BC002800D000471248134993
:1000A000086003C880F30888084703B5996A0420EC
:1000B0000142FBD001200142F8D103BD02B5186610
:1000C0001866FFF7F2FF186E186E02BD00000240BE
:1000D000000000180000070000035F00212200005C
:1000E000F4000018222000A00001001008ED00E03C
:1000F00000000000000000000000000074B24E7A12
:1001000000200420F7010010CB010010CD010010E9
:10011000C9010010C9010010C9010010C901001077
:10012000C9010010C9010010C9010010CF01001061
:10013000C9010010C9010010D1010010D301001045
:10014000C1010010C1010010C1010010C101001067
:10015000C1010010C1010010C1010010C101001057
:10016000C1010010C1010010C1010010C101001047
:10017000C1010010C1010010C1010010C101001037
:10018000C1010010C1010010C1010010C101001027
:10019000C1010010C1010010C1010010C101001017
:1001A000C1010010C1010010C1010010C101001007
:1001B000C1010010C1010010C1010010C1010010F7
:1001C000EFF30580103800BE00BE00BE00BE00BECA
:1001D00000BE00BEF2EB887184650010A0650010BF
:1001E0003802001090A31AE700201E49086006C8D4
:1001F00081F3088810471C480068002801D00020BF
:10020000F3E70DA40ECC002902D000F012F8F9E7B4
:100210001649174A002000E001C19142FCD115495E
:100220008847154988471549884700BEFDE701C939
:1002300001C29A42FBD37047A0650010C0000020A5
:10024000E80B0020C870001000000420000004200B
:10025000C8700010001004200010042000000000EE
:100260007047000008ED00E0000000D0E80B00201F
:100270002C100020712B001001040010352B0010F1
:1002800070B50D1C06002A49281C02F059FB0028F5
:100290003DD1FE21281C890502F068FB7468002806
:1002A00032D10021281C02F059FB002831D0012353
:1002B000327CA340002A33D0D022120653610021A1
:1002C000281C02F03DFB002803D080231B069C461F
:1002D0006544B36817499C00E418174BA4009C467A
:1002E000281C644402F0FDFA02F078FBF36880B247
:1002F000002B19D1114B22685040802252019446A4
:1003000003406444236070BDFE25AD05CFE77468EB
:10031000074D0123327C5A400123A340002ACBD150
:10032000D02212069361CAE7054B0004E3E7C046FA
:10033000000080BF00C079440C000540FFFF0000B2
:100340000000FFFFF0B5C646002600B505000674A4
:1003500001604260100017000C0000F023FE012332
:100360001A009846D023BA401B065A6204219A61AB
:100370002000640800F0FCFDEE60AC60052001F098
:10038000F5FC02F004FB174902F097FAF421890505
:1003900002F090FA8321C90502F0A3FA02F01EFBD5
:1003A000AB6811499A00D218104B9200D3181E6006
:1003B0009E60DE6019614146586019600C4BD1188F
:1003C000EB680968581E83410A485B4203400A48AB
:1003D000844663440B4009498C466244136080BCE8
:1003E000B846F0BD8096984BE7030000000005403A
:1003F0000C0005400100FEFFFFFF00000C1005404F
:10040000F0B5DE46454657464E46E121E0B5490285
:10041000A5B0BC4801F0C2FA0221002000F0A8FDFE
:100420000221012000F0A4FD002301220821B5488B
:1004300001F042FB0121B34801F07AFB03220221C3
:10044000B148FFF77FFFB14F042105223800FFF7C5
:1004500079FFAD4BAE4D9A68AC4693009B18AA4A03
:10046000AC4CD2689B00511E8A41AB4918195242CC
:1004700000680A4062440240A8480D26844663444E
:100480001A60BB68AC469A00D218FB68920010193B
:100490005C1EA3415B420B40016863440B409F49D3
:1004A0009F4D8C4662441360002364202B7001F042
:1004B00077F99C4B522400229B5E00212022B046FB
:1004C0009C4699488F4B002940D1A44545D0996955
:1004D0000A42FCD11C60017801300D394C42614167
:1004E0000478C9B2002CEED12022864914008B6911
:1004F0001C401A42FAD10A230B608C4B9B468C4B52
:100500009846804910228B69DB060BD52B78002B8F
:1005100000D01BE1012001F043F97A4910228B69D8
:10052000DB06F3D410008B6918401A42FAD10B682D
:10053000DBB20A2B17D00D2B15D07E2C00D9E7E1AA
:10054000082102AA521813550134DAE799690A42C0
:10055000C0D099690A42F9D1BCE799690A42FCD135
:1005600041461960B3E7002CCBD0002308229946FE
:1005700002AB9B184A4659461A55029204A802AA91
:1005800004F092F8041E00D1B9E06A4902F050FF6D
:10059000002800D11BE22000674902F049FF002833
:1005A00000D15BE22000654902F042FF824600284C
:1005B00000D04FE1594602AA002004F075F85946D0
:1005C000040002AA002004F06FF88146002C00D13C
:1005D000A2E2002800D19FE2534603A9039303F04F
:1005E000D3FF039B8246994500D1F1E21B78002B93
:1005F00000D0EDE2002102F0A3F9002800D043E38F
:10060000FE215046890502F0B1F9002800D0B3E37D
:100610000021504602F09AF9002800D034E320006F
:10062000474902F005FF002800D1A3E32000454917
:1006300002F0FEFE002800D0BCE380231B065344DA
:100640009A46994651463048FFF71AFE4946380007
:10065000FFF716FE01F05EF9002900D190E3FA22BF
:100660000023920001F0B8FD434600211860596054
:1006700001232B702B4B0D2600229B5E4F209A46A8
:10068000314BB1469C4666462022A4460400300009
:100690001C4B002900D051E3A24500D156E39969D3
:1006A0000A42FCD11C60017801300D394C42614195
:1006B0000478C9B2002CECD164460021207888422D
:1006C00016D00D262022B1460E4B002900D043E360
:1006D000504500D148E399690A42FCD1186021785D
:1006E00001340D39484241412078C9B20028ECD18B
:1006F0002021044A93691942FCD10A231360002483
:10070000FFE6C04600400340E40E0020080F002032
:10071000FFFF00000C0005400100FEFF0C1005402B
:100720002810002024100020F85D00100C5E00103E
:10073000680D0020105E0010205E0010305E00107A
:10074000745E00107C5E0010FC5E001001F0E2F8A8
:1007500000297AD0FA220023920001F03DFD002307
:1007600041460090019308684968009A019B121A5B
:100770008B411100002B04D1AF235B00994200D8BC
:10078000C8E6AB4BAB4E9A6893009B18A84A9B00F7
:10079000D2689819511E8A41A749524289460A4097
:1007A000A64900688C46A64962448C4602406344D0
:1007B0001A60BB689A00D218FB689200591E8B41E0
:1007C00049465B420B409D4990198C460168634441
:1007D0000B409B490D268C466244136000232B700E
:1007E000984BB24600229B5E0021994645239C46C9
:1007F00066462022A44634009348944B002917D122
:10080000A1451CD099690A42FCD11C6001780130D5
:100810000D394C4261410478C9B2002CEED16446D6
:1008200020218A4A93691942FCD10A23136071E698
:1008300099690A42E9D099690A42F9D1E5E79969CB
:100840000A42FCD151461960DCE7FA21890001F027
:1008500085FC84E7764B794E9A68B44693009B18E2
:10086000734A744CD2689B00511E8A417249181910
:10087000524200680A406244024071488446634420
:100880001A60BB68B4469A00D218FB68920010192F
:100890005C1EA3415B420B40016863440B40684906
:1008A0000D268C46624413604B462B70654B4524E5
:1008B00000229B5E00212022B1469C466448634B87
:1008C000002918D1A4451DD099690A42FCD11C60A9
:1008D000017801300D394C4261410478C9B2002CD5
:1008E000EED12022594914008B691C401A42FAD1DA
:1008F0000A230B6005E699690A42E8D099690A4221
:10090000F9D1E4E799690A42FCD149461960DBE76D
:10091000474B4A4E9A68B44693009B18454A9B0041
:100920009C18434A2468D2682870511E8A41424963
:1009300052420A4062442240414C4648A446634425
:100940001A60BB689A00D2183A4B9200D418FB6820
:100950005E1EB3415B420B4038490D268C46216830
:1009600063440B40364945248C4662441360354B42
:10097000002100229B5EB14620229C46334B002979
:1009800018D1A4451DD099690A42FCD11C60017898
:1009900001300D394C4261410478C9B2002CEED1CE
:1009A00020222A4914008B691C401A42FAD10A23DA
:1009B0000B60A6E599690A42E8D099690A42F9D123
:1009C000E4E799690A42FCD149461960DBE70D2644
:1009D0001C4B4F2400229B5E00212022B1469C46E6
:1009E0001D481A4B002916D1A4451BD099690A420B
:1009F000FCD11C60017801300D394C426141047812
:100A0000C9B2002CEED12021104A93691942FCD1C1
:100A10000A23136073E699690A42EAD099690A4287
:100A2000F9D1E6E799690A42FCD149461960DDE748
:100A3000E40E00200C0005400100FEFFFFFF000057
:100A40000C10054024100020385F001000400340C7
:100A5000085F00101C5F0010185E0010CB4BCC4EDE
:100A60009A68287093009B18C84A9B00D2689C190A
:100A7000511E8A41C749524289460A40C6492468E4
:100A80008C46C64962448C46224063441A60BB6867
:100A9000C3489A00D218FB689200591E8B41494600
:100AA0005B420B40BC4994198C46216863440B405F
:100AB000BA490D268C4662441360BA4B4F2400227B
:100AC0009B5E00212022B1469C46B74B002916D1DF
:100AD000A4451BD099690A42FCD11C600178013001
:100AE0000D394C4261410478C9B2002CEED120216D
:100AF000AD4A93691942FCD10A231360FFE5996955
:100B00000A42EAD099690A42F9D1E6E799690A42AC
:100B1000FCD149461960DDE79C4A9F4ED268B44635
:100B2000501E8241994B9A4C9B689A489900C9186B
:100B300089000B1952421B68024062441A40974BCD
:100B40009C46BB6861440A609A00D218FB68920018
:100B500011195C1EA341B4465B420968034063441B
:100B60000B408E490D268C466244136000232B7087
:100B70008C4B452400229B5E00212022B1469C46DE
:100B80008A48894B002916D1A4451BD099690A428D
:100B9000FCD11C60017801300D394C426141047870
:100BA000C9B2002CEED120217F4A93691942FCD1B1
:100BB0000A231360A3E599690A42EAD099690A42B7
:100BC000F9D1E6E799690A42FCD149461960DDE7A7
:100BD0006E4A714ED268B446501E82416B4B6C4CCB
:100BE0009B686C489900C91889000B1952421B6810
:100BF000024062441A40694B9C46BB6861440A60EB
:100C00009A00D218FB68920011195C1EA341B446E9
:100C10005B420968034063440B4060490D268C46E3
:100C20006244136000232B705E4B452400229B5EC0
:100C300000212022B1469C465D485B4B002916D11D
:100C4000A4451BD099690A42FCD11C60017801308F
:100C50000D394C4261410478C9B2002CEED12021FB
:100C6000514A93691942FCD10A23136047E59969F7
:100C70000A42EAD099690A42F9D1E6E799690A423B
:100C8000FCD149461960DDE7142399463F4B404E9D
:100C900099684B4659433D4B8C19DA683E4B501EC0
:100CA00082419C463B483D4B5242024062449C4636
:100CB0004B462468614422400A60BA685A43FB6884
:100CC00091195C1EA3415B42034033480968844686
:100CD00063440B4031490D268C4662441360314B0E
:100CE000002100229B5E4F242022B1469C462C48C6
:100CF0002D4B2970002914D1A44519D099690A42B5
:100D0000FCD11C60017801300D394C4261410478FE
:100D1000C9B2002CEED12021234A93691942FCD19B
:100D2000EBE499690A42ECD099690A42F9D1E8E703
:100D300099690A42FCD149461960DFE799690A427C
:100D400000D1AFE499690A42F8D1ABE499690A424B
:100D5000FCD149461960A2E499690A4200D1BDE478
:100D600099690A42F8D1B9E499690A42FCD1494625
:100D70001960B0E4D14665E4FE239B059A464EE433
:100D8000FA21890001F0EAF96EE4C046E40E002081
:100D90000C0005400100FEFFFFFF00000C100540A5
:100DA000285E00102410002000400340385E001030
:100DB000605E001020005D4902F03AFB002826D05A
:100DC00020005B4902F034FB002824D059495046EA
:100DD00001F087FD58498146200002F029FB0028D8
:100DE0001CD02000554902F023FB002800D129E443
:100DF0002000534902F01CFB002813D180231B065E
:100E000053449A4680231B064B4499461AE4002318
:100E1000D1469A4616E40023994613E45346CA463F
:100E200099460FE42000474902F002FB002809D14F
:100E3000802380221B0612064B44524491469A4658
:100E4000FFF700FC2000404902F0F2FA002806D12A
:100E500080231B065344D1469A46FFF7F3FB20003C
:100E60003A4902F0E5FA002805D180231B065344D5
:100E70009946FFF7E7FB14239946354B354E9968A1
:100E80004B465943324B8C19DA68334B501E824122
:100E90009C463248324B5242024062449C464B468A
:100EA0002468614422400A60BA685A43FB68911979
:100EB0005C1EA3415B4203402748096884466344A3
:100EC0000B4027490D268C4662441360254A0023B7
:100ED0000021525E45242021B14694462248234AEF
:100EE0002B70002B15D1A4451AD093691942FCD15F
:100EF0001460037801300D3B5C4263410478DBB23F
:100F0000002CEED12021194A93691942FCD1FFF738
:100F1000F4FB93691942EBD093691942F9D1E7E7E1
:100F200093691942FCD14B461360DEE7905E0010D6
:100F3000A05E00103333B33E885E0010985E001050
:100F4000A85E0010B85E0010C85E0010D45E0010ED
:100F5000E40E00200C000540FFFF00000100FEFF32
:100F60000C10054024100020E45E001000400340F7
:100F700010B54024084A83009A181268C0005440F3
:100F8000C0222240054CA44663441A60044B9C4690
:100F90006044416010BDC04604C0014004D001401F
:100FA000004001400123D022834040211206936279
:100FB0009361094A83009A181268C0005140C02208
:100FC0000A4006498C4663441A60054B9C4605233B
:100FD000604443607047C04604C0014004D00140F3
:100FE000004001400FB400B5084883B001F004FF91
:100FF000049B002B07D005A91800019101F064FDA6
:10100000034801F0F9FE012001F076FD4C5F00106D
:101010005060001070B5EFF3108C72B60D4D2B6858
:10102000002BFCD0BFF35F8F0724CB08C618C05C31
:1010300001230C40A3401C000440034207D103439A
:101040003370BFF35F8F2C608CF3108870BD10007D
:10105000FFF7C8FF2C0100D0044A1078431CDBB214
:10106000172B00D9102313707047C046E8010020E9
:101070000021044B044ABFF35F8F02C39342FAD1AD
:101080007047C046000100D0800100D0054B064AE1
:101090001360064A136053609360D3601361536119
:1010A000936170478080808000E400E004E400E009
:1010B0001F2318401E3B8340002905D0C021044A4D
:1010C0004900535013607047802201498B50FAE762
:1010D00000E100E010B5EFF3108C72B60F4A136810
:1010E000002BFCD0BFF35F8F0D4B10309B6880004E
:1010F0001B580C4A934203D0994201D000F0DCFE09
:10110000074B9B681950BFF35F8FBFF35F8F0022BF
:10111000024B1A608CF3108810BDC046240100D029
:1011200000ED00E0C1010010024B9C4661448900C3
:101130000160704740000034F8B5134D134E2C0089
:10114000FF27B5421ED22368002B0FD0FFF784FF84
:1011500001002800FFF7E8FFA780BFF35F8F083486
:10116000B4420FD223682500002BEFD1FFF774FFA4
:1011700001002800FFF7D8FF2771BFF35F8F083405
:10118000B442EFD3F8BDC046E00B0020E80B0020CE
:101190000A4B1968EFF3108072B60A68002AFCD077
:1011A000BFF35F8F1B68BFF35F8F00221A6080F36D
:1011B000108840BF002000217047C046201000204A
:1011C000F0B5DE4657464E464546E0B585B0EFF3EE
:1011D0000582032313409A0011000392B64A525825
:1011E000904601229A409146B44B1A604B46B4484F
:1011F0004363434608229B5E9A46002B3DDA4346F2
:101200009B881BB2002B00DBA1E043469B79002B9F
:1012100000D0F3E0434608241C5F002C23DB424649
:101220005269630094461B19DB0063449C68DD68C7
:10123000631C00D10FE1A248039984466144826A8D
:101240000B69A61A9B1A9E4215D34A46036A1A4294
:1012500011D09B4800F056FB241A8D41002D02DC72
:10126000C4D1002CC2D040BF05B0F0BCBB46B246D2
:10127000A946A046F0BD0C61EBE7424652695B000F
:1012800093465344DB009B445B469E68DF6800F056
:1012900039FB801BB9410029B1DB002F00DAE5E002
:1012A0005B46884A1B69934200D1D8E041465A46C2
:1012B0000820085E5288000410435A465169984736
:1012C00004000D0023002B4300D1CFE0002D00DBF4
:1012D000E8E0361BAF4134003D005B469C60DD60BA
:1012E0000021595E002900DA89E743465B69220044
:1012F0009C462B0048004018C00060448668C768C0
:10130000921BBB41002B00DA79E743466646020098
:101310000094019519810CE07B00DB19DB00F318C8
:10132000009801999C68DD68001BA941002904DB35
:101330001A000023D75E002FEEDA5B461F8053466B
:10134000138043469B881BB2002B00DA5DE74346BF
:101350001A69EFF3108172B61368002BFCD0BFF34B
:101360005F8F43469B8842461BB29A4601235B42ED
:1013700093801369BFF35F8F00221A6081F3108896
:101380005346002B00DA40E743465B699C4608233E
:1013900043449B4653465F0043465744FF000822A0
:1013A0009A5E67445E46BC68FD68002A19DB3B0014
:1013B0000094019567469C4604E01E000023F25EFF
:1013C000002A0BDB0098019953009B18DB00FB18E7
:1013D0009C68DD68001BA9410029EEDA6346BC4623
:1013E0001F005346338000217B5E3A809A46002BD3
:1013F000D0DA43469B79002B00D10BE7002342460D
:101400009371434646460821595E08364B1C00D16D
:1014100029E747468C46556902E006004B1C17D069
:101420004B005B18DB00E8180A00E95E43881BB23A
:10143000002BF2DA01235B42DC178360C460624553
:10144000ECD031803B89944603803A814B1CE7D134
:10145000B8466446E1E66B1C00D0ECE6F9E65B4674
:101460005C69200023699847002821D15B464246E9
:101470001B8813811269EFF3108372B6116800297B
:10148000FCD0BFF35F8F4246594652880A804246DD
:10149000514651801269BFF35F8F0021116083F3C1
:1014A0001088ACE6064800F02DFA24184D4114E7E8
:1014B0006568246806E7C046F80E00203C700540C9
:1014C00000400540C111001070B52E4C2569002D5B
:1014D00004D00A212C48FFF727FE70BD2B4E0321B4
:1014E000300000F005FAE660FFF7B6FD284B032256
:1014F0009C46D02322701B061B6801216370254B7C
:101500006044A3600F238000206102206380636930
:101510004942A18019800231198647311D835852F2
:1015200018315A5275325C39995218320131995238
:101530001832013199521832013199520835183256
:101540009D52023118329952183201319952183293
:1015500001319952183201319952183201319952A0
:101560001832013199520C4B0C49DC600130356264
:10157000FFF7B0FD01210320FFF79AFD084B1D6026
:10158000A7E7C046EC0100202010002000400540E5
:1015900040000034FFFF1000F80E0020C1110010C1
:1015A0003860054070B5C646010000B50469EFF328
:1015B000108C72B620680028FCD0BFF35F8F022029
:1015C0000D5E48696C0080466419E4004444002DB7
:1015D00001DB208848800869BFF35F8F0026066022
:1015E0008CF31088002D30DBE360638805980133AD
:1015F00020615B0406985B0CA26060611A1C002BE2
:1016000021D090B22B04628018430A69EFF3108650
:1016100072B61368002BFCD0BFF35F8F8B882380DA
:101620008D800B69BFF35F8F00221A6086F31088EC
:101630000B7801329A40CB6805498C4663441A60A6
:1016400040BCB04670BD0122DBE701204042F7E715
:101650003C20000010B543890A14934233DD530047
:101660009B184269DB00944604696344EFF3108CD5
:1016700072B62268002AFCD0BFF35F8F5A88090433
:1016800094B2090C8A4208D00369BFF35F8F00222D
:101690001A608CF31088002010BD802212021443BF
:1016A0005C80012302698371BFF35F8F00211160A9
:1016B0008CF31088054902788C469340C26801205B
:1016C00062441360E8E70020E6E7C0463C200000E3
:1016D000F0B504000D0006267642F717C646361907
:1016E0006F4100B582B08F4214D811D000F012F9CA
:1016F00032003B00121A8B41002B15DC002B44D02A
:101700002000290000F03AF902B080BCB846F0BDD4
:101710008642EBD90026002700F0FCF832003B009F
:10172000121A8B41002BE9DD00F0F4F832003B0087
:10173000121A8B41002B0ADB00230193144B320059
:10174000009314483B00FFF72DFF0028D8DBB0467C
:101750000026BC46104A114F7B6A9C4504D8B96AE2
:101760008845CDD99C45CBD11168EFF3108072B676
:101770000B68002BFCD0BFF35F8F1368BFF35F8F44
:101780001E6080F3108820BFE6E7002AB8D0CBE7C0
:1017900091110010EC0100202010002000400540B5
:1017A00070B5060000F0B6F8FA2204000D00002320
:1017B00030000021920001F05DF800196941002914
:1017C00002DBFFF785FF70BD012001494042F8E7C9
:1017D000FFFFFF7FF0B5D6464F464646C0B5040032
:1017E0000D0082B0EFF30583002B30D13C4B9A46BD
:1017F0001B68834226D03B4B2F009846DB689946F6
:10180000434648461E7800F07DF80B0049460436F2
:10181000B6000200715826000020B61A9F41891AAE
:10182000B84224DC21D020BF2F4A536AAB422AD3CE
:10183000926A0120A2424AD302B0E0BCBA46B14645
:10184000A846F0BD53465B688B42D4D1EBE7264AED
:101850000020536A8B42EFD3926A0130A242EBD24E
:10186000581A421E9041C0B2E6E7B142DBD900F0FF
:1018700051F822002B00121A8B41002B05DA1A4A6C
:10188000536AAB42D4D20020D6E700230193174B12
:101890002200009340462B00FFF784FE011EEEDD80
:1018A00053461C605D60104B2E005A6A954215D855
:1018B0009B6AA34210D34046FFF7CCFE0A4A0020A1
:1018C000536A9E42B8D8926A0130A242B4D2E81A52
:1018D000421E9041C0B2AFE79542ECD120BFEAE78B
:1018E00008020020EC01002000400540911100108A
:1018F00010B5024A0248FFF78DFB10BD5C5F001077
:10190000A80E00200300416A0A00986A596A8A42B8
:10191000FAD17047034B596A0A00986A596A914292
:10192000FAD170470040054070B504000D00124A1E
:10193000536A1900966A536A8B42FAD13000190033
:1019400024184D41AB4211D80ED02B000A494A6AE7
:101950009A42FCD307D1084A02E0516A994202D167
:10196000916AA142F9D370BDA642EED901230124A8
:101970006442E5175B42E9E700400540064A536AC6
:101980009942FCD807D1044B02E05A6A914202D135
:101990009A6A8242F9D3704700400540F8B50400C6
:1019A00006200D0000F0E2F9002842D0364B3749FE
:1019B000E21853425A418023DB039C469205344B84
:1019C00062441A60334B1A6010000B689843FBD1D5
:1019D0002D4B8021E3185A4253412F4A5B004900A6
:1019E0009952062000F0C2F92900C00000F0B6FBB1
:1019F0000130C3091ED1402701226262A362266B17
:101A0000F30722D4E36A254B0620E51800232B6058
:101A1000266300F0ABF93900800000F09FFB7022D4
:101A2000E36A5A407E2313402B601D4B236303233C
:101A3000A364F8BD1B4A93421ED900231A4A1B4FC8
:101A40006262A362266BF307DCD5194B144AE318D4
:101A50001A60656AA26A0620AD01AD1800F086F929
:101A6000144900F07BFBAD020100280000F076FB7A
:101A70000021FFF759FFC5E74006800E9F011A00BD
:101A80003F180300B9E7C0460080FCBF08C0004013
:101A900000E0004000F00040241000202C10000066
:101AA00001030000FEFF0000FFFF0000C0FF3F0039
:101AB000303000004E0E00000539013AF8B5D20072
:101AC0004C0105001443002B05D002222243012BB8
:101AD00024D105331C432E6BF30708D4EA6A104B5C
:101AE00062406E24EB1814401C602E63F8BD0D4B51
:101AF0000D4AEB181A606F6AAA6A0620BF01BF1868
:101B000000F034F9094900F029FBBF020100380058
:101B100000F024FB0021FFF707FFDFE71400DAE7FE
:101B20002C10000030300000010300004E0E0000B9
:101B3000F8B54B1E9941066B05000C01F30708D45C
:101B40001023E96A4C401C400D4BEB181C602E63BF
:101B5000F8BD0C4B0C4AC3181A60476A826ABF0171
:101B60000620BF1800F002F9084900F0F7FABF029A
:101B70000100380000F0F2FA0021FFF7D5FEDFE7A0
:101B80002C10000030300000010300004E0E000059
:101B9000F8B5DE464E4657464546E0B58B4605004D
:101BA0000A991800160000F0D9FA0A9B6C001F026F
:101BB000324B64199C46A4006444636881469F428A
:101BC00000D967602B1FDBB29846012B30D9C023A8
:101BD00080229B01E31812011A60294BAD0059596C
:101BE0009A4600291BD1226876017240E0268023A4
:101BF000164042465B01E3181E60012A30D980235B
:101C000080229B01E31812011A6053464A4667601E
:101C10005A51F0BCBB46B246A946A046F8BD586929
:101C200000F09CFA431C5800C0180338FDD2DAE7D4
:101C30005B46012BCBD1C02303229B01E3181A6022
:101C4000023AA3681A42FCD0E0232268760156408B
:101C50001E4080230A4A5B019246E3181E60AD00D5
:101C60005A462168514003220A401A6001225B460D
:101C70009A40A3681A42FCD0C1E7C04600800040E9
:101C8000AC0E0020F0B546464F46D646C0B51F0004
:101C9000344B44009C462418A4006444636888467E
:101CA0001600FF2B02D880235B006360031FDBB2AA
:101CB0009A46012B30D9C02380229B01E3181201E0
:101CC0001A60294B85005959994600291BD1226871
:101CD00076017240E0268023164052465B01E318ED
:101CE0001E60012A30D9802380229B01E318120153
:101CF0001A6080235B0063604B465F51E0BCBA46CC
:101D0000B146A846F0BD586900F028FA431C5800B7
:101D1000C0180338FDD2DAE74346012BCBD1C023EC
:101D200003229B01E3181A60023AA3681A42FCD00E
:101D3000E0232268760156401E4080230A4A5B0158
:101D40009146E3181E6085004246216851400322F7
:101D50000A401A60012342469340A2681342FCD015
:101D6000C1E7C04600800040AC0E0020014B80005F
:101D7000C0587047AC0E0020F8B5040020481D0084
:101D800017000E0000F0EAF90100380000F0E6F953
:101D9000069B29041B0319432368002B1EDB194BE8
:101DA000194DE21853425A4180235B019C461203AD
:101DB000164B62441A60164B1A6017002B689F433B
:101DC000FBD1144B2660E2182123A0601360236826
:101DD000002BFCDA0823E1601360F8BD3F23226882
:101DE0001340B342DBD1A3681B051B0D8342D6D140
:101DF000EE22E368D20213408B42D0D1EDE7C04619
:101E0000001BB7000040FDBF08C0004000E00040DC
:101E100000F00040043000008023024A9B000B4386
:101E2000D362704700800540142310B50100188864
:101E300004331B88984710BD162310B5010018887D
:101E400002331B88984710BDF8B54746CE4680B58B
:101E50000F1E19D0142399460433040000250126CF
:101E600098464B461888434621681B88984701C40A
:101E7000431E9841013540420640AF42F1D1300047
:101E8000C0BCB946B046F8BD0126F8E7AA23064A09
:101E90001B0113608D235B00D3600449044B196060
:101EA0005368002BFCDA70470040024000B0FA0093
:101EB000006002407047C04610B50148FFF792F835
:101EC000805F001070B5074D074EB54209D200245F
:101ED000013E761BB60808CD984723000134B34273
:101EE000F9D170BDB85D0010F45D0010054B064AD5
:101EF00006491A60064A074B1A6010000B6898439F
:101F0000FBD1704700E00040BFCDFBFE08C00040A1
:101F1000FE7F3C0000F00040044BDB6C002B03D143
:101F20008022034BD2021A607047C0460000115055
:101F30004C201150044A054B1A60054A1368DB0116
:101F40008033FBD17047C046FFFFFF0100F0004027
:101F500008C000404022034B9A675A671A67DA6646
:101F60007047C04600F0014010B5FFF781F810BD82
:101F7000F8B52749274B284D5B1A9C082200302CC6
:101F800000D930222800920000F070FD2F2C3CD8A0
:101F900030202F21A700EB195B07204A001BDB0F25
:101FA000091B052917D92600002B01D0EA51661C10
:101FB000C01AE3189B004108EB18C900C9181A6041
:101FC0005A6008338B42FAD10123010099437418F7
:101FD00088421AD0A700EA51631C2F2C15D09B0011
:101FE000EA50A31C2E2C10D09B00EA50E31C2D2C91
:101FF0000BD09B00EA50231D2C2C06D09B00EA50EE
:10200000631D2B2C01D09B00EA50054B9D60F8BD51
:1020100000010010C001001000000020C1010010EC
:1020200000ED00E0002310B5294C82B0A367FFF754
:102030002DFF0122274B1A60636C012BFCD1032278
:10204000254B1A60224A936B012BFCD1013300937C
:102050000121224A22480433FFF78EFE0523012185
:102060000093204A2048FFF787FE00220221042027
:102070001E4BFFF707FE0022012105201C4BFFF736
:1020800001FE0022002107201A4BFFF7FBFD002272
:1020900000210820174BFFF7F5FD8023DB0000939C
:1020A000002200210920134BFFF772FD0022104B84
:1020B00000210620FFF7E6FD0420FFF757FE0E493A
:1020C00000F04CF801000020FFF7A6FE02B010BDA2
:1020D000008000403CB0004030B00040002F685904
:1020E00000800240008C864700C00240001BB70001
:1020F00040597307006CDC0240420F000148042184
:10210000014B184710020020491E0010124A936F1D
:102110009B0815D29066D166002905D0FFE7FFE73E
:10212000FFE7516F106F704704B580210906C21791
:102130005140002800D0C84303F036FE002104BD02
:10214000F0B5146E556E576F166FFFF7E3FF146608
:10215000556657671667F0BD000000D0114A936FAF
:102160009B0813D210665166002905D0FFE7FFE7F0
:10217000FFE7516F106F704704B5002801D00020B1
:10218000C04303F011FE002104BDC046F0B5146E3B
:10219000556E576F166FFFF7E5FF14665566576764
:1021A0001667F0BD000000D094464A4A926F92082C
:1021B000624601D228E0C046F0B5464E346E756ED8
:1021C000776F366F00F020F89446424A14665566E1
:1021D000576716676246F0BD94463E4A926F920872
:1021E000624601D254E0C046F0B53A4E346E756E88
:1021F000776F366F00F04CF89446364A1466556691
:10220000576716676246F0BD002B24DB11D000290A
:102210003EDA00B5C943404200D1013100F038F840
:10222000C943404200D10131DB43524200D1013366
:1022300000BD002AEBD1002801D1002905D00020E3
:10224000C90FC90701D1C043410800B503F09CFD87
:102250000022002300BD00B500290ADBDB43524207
:1022600000D1013300F014F8C943404200D10131DC
:1022700000BDC943404200D10131DB43524200D18D
:10228000013300F005F8DB43524200D1013300BDB9
:10229000002923D1002B18D1002A0CD0BC460D4FA9
:1022A00038667A6600210023FFE7FFE7FFE77A6FD1
:1022B000386F67467047002801D00748010000B515
:1022C00003F062FD0022002300BD02000B0000208D
:1022D00000217047000000D0FFFFFFFF002B00D05F
:1022E000BFE0130C28D1002AE7D080B4114F396623
:1022F0007A66FFE7FFE730B4040C7B6F396F1B048D
:1023000023433B667A66FFE7FFE7FFE7C04684B2F8
:102310007B6F3D6F1B0423433B667A66FFE7FFE755
:10232000C04600232C042D0C7A6F386F00196941C8
:10233000B0BC7047000000D0F0B594460025140EE4
:1023400001D112020835140F01D112010435940F86
:1023500001D192000235D40F01D152000135D40BC6
:102360000134254F7C66254C3C660E0C93B2FFE78A
:10237000FFE7FFE73C6F6643360C7703BE467343C7
:10238000DF0B5B04C01AB941130C7343DB18C91A85
:10239000CE086643360CB64493B273431F0F1B013D
:1023A000C01AB941130C73431F0B1B05C01AB94166
:1023B000860D8F023E436643360C092D24DB520AFC
:1023C0007243801A7703460A6643360C16235B1B5A
:1023D000DE40DF40BF1964466643821B7046043509
:1023E00006330100D940A840C01900D30131A242F0
:1023F00006D20023F0BD0000000000D0FFFFFFFF69
:10240000121B0130F3D3F1E709277F1BFE4064461E
:10241000A2B27243801A00D20139220C7243130C0B
:102420001204821A99410B007046043513370100DB
:10243000F940A840801900D30131002B02D1A242FB
:102440000AD2F0BD013000D30131121BFAD2013B98
:10245000F8D1A24200D2F0BD013000D30131121BED
:10246000F7E7F0B51C0C00D080E00CB400251C0A86
:1024700004D11B02160E3343120208351C0B04D183
:102480001B01160F3343120104359C0B04D19B0032
:10249000960F334392000235DC0B02D192185B4158
:1024A00001351C00971864410134464F7C66464C48
:1024B0003C660E0CFFE7FFE7FFE7C0463C6F664354
:1024C000360C7703BE4697B27743C01B00D2013962
:1024D000C01B00D201399FB27743C91BC91B170C1F
:1024E00077437E04FF0B801BB941CE086643360C50
:1024F0000C2D33DBB644120B1F053A431B0B97B26E
:102500007743C01B00D201399FB27743C91B170C18
:1025100077433E043F0C801BB941860D8F023E433A
:10252000664329277F1BFE400C3D7746AF40BF190D
:1025300030BCA2B2ABB272437343801A9941220CF1
:102540007243130C1204801A994102000B000137E8
:10255000001BA941F9D2781E0021F0BD0C277F1B7A
:10256000FE4077467F0BAF40FF19E0E700245D1C7B
:1025700007D0144F7D663966FFE7FFE7FFE7FFE707
:102580003C6F95B29EB265436643401BB141150C4A
:102590001E0C6543664336042F0C3E432D04401B3E
:1025A000B141994204D202000B0020000021F0BD8D
:1025B00001D19042F7D3801A994101349942F2D364
:1025C000F6E70000000000D0FFFFFFFF4840414059
:1025D000484018B4134B5B68019308BD18B4114B05
:1025E0001B68019308BD94460F4A926F920805D26A
:1025F000624618B40B4BDB68019308BD0A4AF0B57C
:10260000146E556E576F166F6246FFF7F2FF064A5B
:102610001466556657671667F0BD18B4014B9B6882
:10262000019308BD700D0020000000D0FFB55040A0
:102630004240504059404B40594000E0FFB5154FD3
:102640004C00640D03D0BC4204D10C0314D800200C
:10265000090D09055C00640D03D0BC4204D11C03C4
:102660000AD800221B0D1B0501264B4009D44B4004
:1026700003D58B4200D18242FFBD9942FCD19042EA
:10268000FFBD0B43DB1803431343F5D0C94349187F
:10269000FFBD0000FF07000000B5FFF7CFFF01D02E
:1026A000002000BD012000BD00B5FFF7C7FF80413D
:1026B00000BDC04600B5FFF7C1FF01D9002000BD35
:1026C000012000BD00B5FFF7B1FF804100BD012032
:1026D00040054A00121804D85A00121801D80020E8
:1026E00070470120704700000021002805D1704785
:1026F000C1174840401AFAD0C90713B5064B1B68EA
:1027000098470CBC441CA2401005120B0349091B3E
:1027100009051943114310BD1C0F00201F040000C0
:1027200018B4024B5B6A019308BD0000700D0020D5
:1027300018B4024BDB6D019308BD0000700D002042
:10274000C94211D300B549004908002200F014F82D
:10275000002904D4002240428A41114600BD802154
:102760000906002000BD000018B4024BDB6E019387
:1027700008BD0000700D002018B4024B9B6F019340
:1027800008BD0000700D002018B4024BDB6F0193F0
:1027900008BD0000700D002010B50148FEF722FCB6
:1027A0008C5F0010132370B51D78012D15D039DD15
:1027B0001E48FFF741FB06001D48FFF73DFB1D4C7F
:1027C00080223100200000F051F9022D27D01A4854
:1027D000FFF72AFB194B186070BD194B154C23608D
:1027E0006360A360E36023616361A361E3612362CB
:1027F0006362A362E36223636363A363E3632364AB
:102800006364A364E36423656365A365E36523668A
:102810006366A366E36623676367A367E367094BA1
:10282000A364D4E7034C074BA364D0E753440000F0
:1028300053460000700D00204C3300001C0F002098
:10284000992700104928001007B5604601880A0A38
:102850000230DF2AFAD1C9B2820804D30288408844
:102860000004104300E00068014A5050039007BD87
:10287000700D002051434343C9188C46110C83B29C
:102880004B4310B4040C614392B280B25043624394
:102890001C041B0C001910BC59411304120CC01865
:1028A00051416144704700004840414048400E4B50
:1028B0005B6818470C4B1B6818470C4A936F9B08C2
:1028C00002D2094BDB681847F0B5146E556E576F8E
:1028D000166FFFF7F6FF054A1466556657671667C9
:1028E000F0BD014B9B681847200F0020000000D06E
:1028F00007B548404140484001E0C04607B54200A6
:10290000120E03D0FF2A03D1420218D8C00DC00511
:102910004A00120E03D0FF2A03D14A020FD8C90D74
:10292000C9050122414005D4414001D5814207BD7E
:10293000884207BD0143491801D0C043001807BDB4
:1029400000B5FFF7DBFF804100BDC04600B5FFF7D3
:10295000D5FF01D9002000BD012000BD00B5FFF763
:10296000C7FF01D9002000BD012000BD00B5FFF761
:10297000BFFF804100BD01231B064200D21804D8CE
:102980004A00D21801D80020704701207047491A28
:10299000002807D108467047C10FC90700D540423B
:1029A000002817D0F44603B40B4B1B68984706BCAD
:1029B00081409E384042803107D20B0607D0490043
:1029C000490AC0051043084360470130F8E7490A47
:1029D0008902F5E7704700001C0F0020014B5B6A7D
:1029E00018470000200F002010B50148FEF7FAFA42
:1029F00050600010132310B510481C78FFF71CFA24
:102A00000100012C0AD003DD80220D4800F02EF8D1
:102A10000C48FFF709FA0C4B186010BD084C542203
:102A2000200000F023F82300084A803321680029A1
:102A300000D122600434A342F8D1E9E753460000F4
:102A4000200F00204C3300001C0F0020E92900104B
:102A500001480421014B184720020020491E0010A4
:102A6000014B1B681847000020020020014B5B68E7
:102A7000184700002002002010B5002800D110BD2A
:102A800000F06EF9FBE7C0460FB410B50C4984B0F6
:102A900006AA08CA0C680392002C0BD000920122EF
:102AA0000848524202A9A047012004B010BC08BC4B
:102AB00004B01847180000F09FF90020F5E7C04661
:102AC000E00E0020792A001010B5094A03001468AE
:102AD00084B0002C08D0012200910648524203A97C
:102AE000A047012004B010BD00F086F90020F9E7EE
:102AF000E00E0020792A001000BEFDE77047C046B6
:102B0000094A03001068002805D00849C3188B4201
:102B100007D81360704706480449C31810608B42F9
:102B2000F7D901204042F5E7DC0E00200000042028
:102B30002C10002010B5FFF7DFFFC04610B50C00C9
:102B400082B01900002A0AD0064B019200930200BD
:102B500023000548FFF798FF0120FFF7CDFF034B47
:102B60001A00F2E74460001054600010506000103A
:102B700070B5FFF7A7F9074D074EB54209D20024FB
:102B8000013E761BB60808CD984723000134B342B6
:102B9000F9D170BDF45D0010F45D0010030010B5B4
:102BA000080011001B68984710BDC046F0B54646A6
:102BB0004F46D646C0B5437D80460E001700002B19
:102BC00046D0002A3FDD4B1E9946244B01250024A8
:102BD00000209A460DE04B461B5D0D3B5A42534187
:102BE000325DDBB20A2A0BD02B00013401359F4243
:102BF0001ADD002CEFD14346325D1B7D0A2AF3D14A
:102C0000002BF1D1A04204DA4346211A1B68301888
:102C10009847434650461B680221984701342800D4
:102C20002B0001359F42E4DC874204DD4346391A1C
:102C30001B6830189847F619013E33780D3B5A420D
:102C4000534142461375E0BCBA46B146A846F0BDB2
:102C50000368110030009847F5E7C0468460001013
:102C6000F0B5DE4657464E464546E0B585B01700FE
:102C70001C0006000D00FEF74DFE0023314A12181D
:102C80004B41002B59DB304908008A4603F084F899
:102C900001906B1C03D1300000F00EFC0500002CED
:102CA00026D12A4B98462A4B1C68002C15D0002FA1
:102CB00021D1284F02E02469002C0ED02368002B7C
:102CC000F9D03B68002B01D0A342F4D120002A00A8
:102CD0003100C0472469002CF0D1019B002B28D182
:102CE000280005B0F0BCBB46B246A946A046F0BDE0
:102CF000194B9846D7E7174B994602ABDF1D0A23BD
:102D00009B4602E02469002CE7D02368002BF9D011
:102D10004B461B68002B01D0A342F3D12A0031009F
:102D20002000C0475B460122390020003B70C047AD
:102D3000E8E7504603F020F8D2E70122074B524261
:102D4000A1E7C04640420F00E00B00209D2B001081
:102D5000D40E0020D80E0020AD2B0010FFFFFF7F07
:102D6000F0B5CE46474680B583B06B460600DD1D04
:102D70002870FEF7CFFD00231A4A12184B41002B92
:102D80002BDB19490800884603F006F8174B8146EB
:102D90001C68002C14D0164F02E02469002C0FD0C0
:102DA0002368002BF9D03B68002B01D0A342F4D15B
:102DB000200001222900FFF7F9FE2469002CEFD141
:102DC0004B46002B05D1300003B0C0BCB946B0461D
:102DD000F0BD404602F0D0FFF5E70122054B52421C
:102DE000CFE7C04640420F00E00B0020D40E002089
:102DF000D80E0020FFFFFF7F70B5040000F05CFBE1
:102E000001230100050001222000FFF729FF084BE4
:102E10001C68002C06D06368002B05D098472469F5
:102E2000002CF8D1280070BD2469002CF3D1F9E7FB
:102E3000D40E002010B5514300F02AF8041E0ED025
:102E40000300083B5A6803239A43043A242A15D8FE
:102E50000300132A05D800221A605A609A602000E5
:102E600010BD00210833016041601B2AF3D9816045
:102E7000C160242A06D003001033ECE70021FFF7DD
:102E8000EFFDECE70300016118334161E3E7C04661
:102E9000F0B54E464546DE465746E0B50D000B35CB
:102EA000060083B0162D22D8102900D9B2E000F018
:102EB000A9FA102518230220CC4FFB181A005C68D1
:102EC000083A944200D1B5E0032362689A431300A4
:102ED000E268A168CA6091600122E3185968300075
:102EE0000A435A6000F090FA2000083095E007236A
:102EF0009D4300D58EE0A94200D98BE000F082FA14
:102F0000FC235B009D4200D2A1E1680A00D18BE066
:102F1000042800D974E138239846A8098044393040
:102F2000C100B24F79184C680839A1420ED0032372
:102F30009C4604E0002ACBDAE468A14206D062464F
:102F4000636893435A1B0F2AF4DD40463A003C69FC
:102F50000832944200D178E003236168994389469E
:102F60000B00491B0F2900DD75E17A613A610029E8
:102F7000B2DA80229200914500D310E15909DA08B3
:102F800001238B40D2007968D2190B4391687B6092
:102F9000E260A1609460CC6001218210914099426E
:102FA00059D80B4205D103229043490004300B420B
:102FB000FBD003239846C3009946B944CC468246C9
:102FC0006346DC68A44507D126E1002A00DB2FE137
:102FD000E468A44500D11FE14246636893435A1B4D
:102FE0000F2AF2DD01208046611905436560A06863
:102FF000E5680837C560A86040461043F960B960CD
:103000004860CF6030008F60E25000F0FDF9200092
:10301000083002E00C230020336003B0F0BCBB4654
:10302000B246A946A046F0BD80213F2340209846E5
:10303000890076E7DC680230A34200D044E73A001A
:103040003C690832944200D086E701217B688210F7
:1030500091409942A5D90323BC6862689A4391467E
:10306000954203D8531B0F2B00DD8AE023004B440D
:103070005F4A01935F4B93469A4612681B68EB18B0
:10308000013200D136E15C4A944663441B0B1B03BA
:1030900000933000009900F0B9F903008046013335
:1030A00000D1F3E0019B834200D9EDE05246009845
:1030B000526803009446514663444B6001991A00DC
:1030C000414500D14BE15B461B68013300D150E123
:1030D000434601995B1A9A1853465A6007234246A1
:1030E00041461A400192194200D10DE10823984649
:1030F000881A424B0099804441449B1A5B1A1B0575
:103100001B0D0091300019009B4600F07FF9431C15
:1031100000D14AE14346C01A03005B440093534682
:1031200052465B6801215B44536042464046BA60A8
:10313000009A0A434260BC4200D11EE14A460F2A6F
:1031400000D81CE107200C3A82436068014005204A
:1031500011436160A118486088600F2A00D92FE1EF
:103160004246444652685146C96A994201D2514684
:10317000CB625146096B994200D389E051460B63FB
:1031800086E0012229001343114365196160300074
:10319000BD606B6000F038F9200008303DE75A0A46
:1031A000042A6BD9142A00D9BEE011005C325B31CD
:1031B000D20008235B429C46BA18944463469A683E
:1031C00003239846944500D197E0434651689943BC
:1031D000494502D992689445F7D1D3689C467B68EB
:1031E0006146A260E1608C60D460D5E6680600208C
:1031F00060060020700E00200F1000000810000074
:10320000142852D9542800D996E06E239846280BEA
:1032100080446F30C10084E608239B46073BDC44B2
:103220009B46DA4443465246134200D0C8E64CE07F
:103230000122E318596830000A435A60E368A26823
:10324000D3609A6000F0E0F820000830E5E62B003B
:10325000E808083330E6012360191D436560786192
:103260003861C26082601A004B460A4342603000F7
:10327000E15000F0C9F820000830CEE69A091100AC
:1032800039323831D20094E7BC4260D0BC68626801
:1032900003239A43531B954202D80F2B00DD70E79E
:1032A000300000F0B1F80020B7E65B239846804478
:1032B0005C30C10035E608235B429C46E1444B4646
:1032C0009B6801384B4500D097E043460342F2D15A
:1032D0007B688B437B604900994200D9BBE600299B
:1032E00004D1B8E6042294464900E2440B42F9D0E6
:1032F000504660E610330093CBE68910023B8B40CA
:1033000079680B437B606BE7009B300043445B4272
:103310001B051B0D19009B4600F078F8431C00D0DC
:10332000F8E600239B46FAE6542A2AD81A0B110025
:103330006F326E31D2003CE7AA235B0098422AD854
:10334000DD3B9846E80B80447830C100E9E5534600
:103350005B68009A9C46534662445A60B3E609058E
:1033600000D0B0E60200BC684A4401310A43626002
:10337000F9E65B4642461A60B0E64446F3E6416031
:103380008EE7AA2149008A4224D8DA0B110078324C
:103390007731D2000DE71A4B984224D87C23984607
:1033A000A80C80447D30C100BBE5009A019B944687
:1033B0004246083B63449B1A009300239B46AEE6BB
:1033C00021003000083101F0C3F95346BC685B6846
:1033D0006268C8E60A498A420BD89A0C11007D320D
:1033E0007C31D200E5E6FE217E237F2098468900CD
:1033F00097E5FE227E219200DBE67B686BE7C04604
:10340000540500007047C0467047C046002370B5A1
:10341000064D040008002B60FFF772FB431C00D030
:1034200070BD2B68002BFBD02360F9E7A40E0020B1
:10343000024670B50A4392072AD11E4DEE0104C818
:1034400008C9541B9443344017D0D0B2D9B2401AA3
:103450002106014310D190B299B2401A21040143D0
:103460000AD110021902000A090A401A2102014376
:1034700002D1100E190E401A70BD9A42DFD010BA58
:1034800019BA884201D9012070BD0020C04370BD27
:1034900002780B7801300131002A09D09A4207D115
:1034A00002780B7801300131002A01D09A42EFD026
:1034B000D01A70BD0101010110B583070AD00300C5
:1034C000032102E001330B4205D01A78002AF9D11A
:1034D000181A10BD030019680C4A0D4C8A188A434B
:1034E00022420FD15968094A04338A188A4322427A
:1034F00008D15968054A04338A188A432242F1D018
:1035000000E001331A78002AFBD1E1E7FFFEFEFE5E
:1035100080808080F0B5DE46574645464E461C000A
:103520000023E0B5A1B01C93BB4B82461B680D0085
:10353000180008920793FFF7BFFF0022002383467D
:103540002F0004920593B54A1B953B782D2B02D88A
:10355000990051588F460022099200220A92302B7E
:1035600000D1E5E01C002F2B01D800F07CFD0022EB
:10357000AC4638000026190015000BE0013093001E
:103580009A181B90047852005218303A21000136E4
:103590002F2C10DD392C5BDC082EEFDDAB005B1926
:1035A00001305B001B905B180478303B1D0021004C
:1035B00001362F2CEEDC904607995A46A9466546FF
:1035C00002F088FB002800D1BAE20D96002300200B
:1035D0009C4610930B93002E00D027E10A9B0343D7
:1035E00000D09CE26346002B1ED1692C01D100F073
:1035F000B4FC17DC492C01D100F0AFFC4E2C13D1E8
:1036000087491BA801F0BEFC00280DD01B9B1B782E
:10361000282B01D100F054FE824802F051FB834672
:103620000F007FE26E2CEBD0089B002B02D0089B92
:103630001D6000239B4600275846390021B0F0BC8E
:10364000BB46B246A946A046F0BD01371B977CE7B2
:10365000904607995A46A946654602F03BFB00286A
:103660007AD11B9B5B441B931C78002E01D000F089
:103670007FFD302C01D000F06CFD0122D21A981889
:1036800001331B931C78302CF9D02300313B082BDD
:1036900000D9BAE31B9B01269C4630235B429B4624
:1036A000A3445B460793431C1093002367460D9386
:1036B0004346079A9B00434490465B004344984628
:1036C0000020634601331B9363465C782100303948
:1036D000092900D938E31B9B01309C46079100293A
:1036E000EFD0109C731CA34683445C461A001094D0
:1036F000012801D100F0B2FC0A002C0080198B4691
:1037000045464946A0469146013807E0AC00651998
:103710006D00984201D100F098FC013332001E0088
:10372000082AF3D9102BF4DC8C0061184900F0E76B
:103730007B78203293437E1C582B01D100F060FC33
:1037400037001B963B780136302BF9D0002B00D187
:10375000E5E101220A9205E7002300209C460D9630
:103760001093202322009A43130000220B92452B32
:1037700000D030E733000A9A0343134300D153E7E4
:103780001B9D6B1C1B936C782B2C01D100F026FC2D
:103790002D2C00D107E300239B462300303B092B4F
:1037A00000D9FBE2302C06D11B9B01331B931C7804
:1037B0000133302CFAD000230B932300313B082B2C
:1037C00000D908E71B9A0133511C1B9154780792CA
:1037D00022002F2C0DDC00F079FC9C00E418640022
:1037E000A4180A00230001311B915278303B2F2A84
:1037F00001DD392AF1DD1400079A891A082901DC54
:1038000000F064FC084B0B935B46002B00D1E2E612
:103810000B9B5B420B93DEE60C630010986000107C
:1038200094600010506000101F4E00000B9B109A17
:103830009B1A0C930D9B002B00D10D96B346102EB6
:1038400001DD10239B464046FEF74EFF0490059194
:10385000092E15DD5A46BE4B093AD2009B181A684C
:103860005B68FEF7DAFE040048460D00FEF73CFFF9
:1038700002000B0020002900FEF7B0FE0490059125
:103880000F2E00DD72E10C9B002B00D160E30C9B3E
:10389000002B01DC00F0F5FB162B01DC00F05CFCDA
:1038A00025230C9A9B1B934201DB00F073FC5B46C3
:1038B000F41A0C9B9C4664440F231A0022402342B6
:1038C0000AD0A349D200891808684968049A059B60
:1038D000FEF7A3FE049005910F239C43231E00D006
:1038E000ABE2002307934346390000935046330070
:1038F0000D9A01F0EDFC8046002800D19FE30C9961
:10390000109B0B98CA171B1A1A40CB43DB171940A0
:1039100000260023C3469946B04657460D921391A0
:103920005B463800596801F04DFC8246002800D102
:1039300089E35B4659461B690C319A1C92000C3096
:10394000FFF794F8049B059C19000B931EAB0193A1
:103950001DAB00930A00230038000A9402F0AEF871
:103960001C90002800D1AAE10121380001F052FD8D
:103970008146002800D166E31D9B002B00DABEE1E2
:103980000D9A139C9D1807991E9A5B1A36219B1855
:103990008A1A7049013B8B4200DB4FE1C91A521A67
:1039A0001F2900DDC8E101238B400E9300231193F2
:1039B000079BA4189C46AE182B006444B54200DD5A
:1039C0003300A34200DD2300002B02DDF61AE41AC7
:1039D000ED1A0D9B002B00DD4DE1002E00DD65E1B1
:1039E0000C9B002B00DD8EE1002C00DD9AE1002D08
:1039F00008DD49462A00380001F07AFE8146002899
:103A000000D120E3524638001C9901F009FF80469E
:103A1000002800D117E3C368494610930023C36010
:103A200001F0E4FE002801DA00F060FC00D1C7E3F9
:103A30004946404602F0AEF880230022DB05040030
:103A40000D00FEF737FE002800D1FCE0109B002B94
:103A500000D181E1059B00240E93002311933E4B7E
:103A60003D4D12933D4B0E9E1E403D4B9E4200D15C
:103A70009FE1079B002B28D0D423DB049E4224D84F
:103A8000384A394B11981299FEF714FE002818D0C5
:103A900011981299FEF744FE002800D10130FEF77C
:103AA00023FE0B001291109902001190002900D002
:103AB00015E3169280221206944663441793169CCF
:103AC000179DD623DB04EB189D1B0B980A9901F078
:103AD0006DFF02000B0020002900FEF79EFD0B9AEF
:103AE0000A9BFEF77BFD0C0004900591079B002BC1
:103AF00004D11A4B23409E4200D146E238001C9963
:103B000001F088FB5146380001F084FB494638003B
:103B100001F080FB4146380001F07CFB00E7002308
:103B200000279B46089B002B01D01B9A1A60099B1B
:103B3000002B00D180E5802109067B181F007BE562
:103B40001B9B0D965B441B931C7800231093BDE5D3
:103B5000B863001002FCFFFF0000F03F0000F07FA0
:103B60000000E07F0000C0FFFFFFDF415B46F41A6A
:103B70000C9B9C466444002C00DD9DE600D1B0E621
:103B80000F231A006442224023420AD00498059968
:103B9000D14BD2009A1853681268FEF724FD0490A6
:103BA0000591241100D19CE61F2C40DC10231A0043
:103BB00022400792234201D05A33079301220498EE
:103BC000059900239146C54D28354A46224204D026
:103BD0002A686B68FEF721FD012364100835002C6C
:103BE000F3D1002B01D004900591079B002B15D039
:103BF000049B059C6B236200520D21009B1A002B35
:103C00000CDD1F2B01DC00F0DEFB00200490342BC8
:103C100001DC00F024FCDC239B04059300220498C3
:103C200005990023FEF738FD002800D15BE622232A
:103C300052461360002300279B4673E7002311932D
:103C400001330E93B4E60022A54B20002900FEF7B5
:103C5000E4FC0B001291109902001190002976D11A
:103C6000149280221206944663441593059B149C7B
:103C7000159D0E93F6E649461A00380001F0CCFC7B
:103C80008146002800D1DEE101001C9A380001F0D5
:103C9000F1FB1090002800D1D5E138001C9901F00B
:103CA000B9FA109B1C93002E00DC99E63200380014
:103CB0001C9901F01DFD1C90002800D090E6534691
:103CC0004646BA46D8460C93222352461360002338
:103CD0009B46844F0100504601F09CFA50460C99D7
:103CE00001F098FA4946504601F094FA4146504690
:103CF00001F090FA3100504601F08CFA12E7139A65
:103D00000D9DD41A3FE651463800139A01F084FC09
:103D10008246031E00D067E64646BA46D8461C983F
:103D20000C93D1E751462200380001F0E1FC8246B5
:103D3000031E00D05BE6EFE76B49CB1A01219940E7
:103D4000012311910E9333E601239C4609E5119A54
:103D5000129B1492159389E70499059A00295BD167
:103D60000E9213035DD10022200029005F4BFEF765
:103D70009BFC002800D000E20022594B20002900C3
:103D8000FEF74BFC802212060B0094466344119010
:103D9000129118901993189C199D63E600231B95A6
:103DA0000B93FFF718FC01239B46AB1C1B93AC78CD
:103DB000F3E44F4A0E9B9446634405930E940F958B
:103DC000049C059D2000290001F0F0FD02000B007D
:103DD0000E980F99FEF721FC22002B00FEF7FEFB48
:103DE000404B444A049005910B40934220D90A9AD3
:103DF000414B9A4203D10B9B013300D123E13E4B4F
:103E0000059301235B42049378E600230D931093FE
:103E1000013300269C46A4E4012900D144E1059B1E
:103E20000E9300231193314B0024344D129319E665
:103E3000D4239B04CC18059458E69A22520094424D
:103E400000DDFCE024111F2B00DC96E204980599AC
:103E500000229146013293464A46294BB1461D0045
:103E60000793160000235A46224204D02A686B6842
:103E7000FEF7D3FB0123013664100835012CF2D183
:103E800032004E469146002B01D004900591184A0D
:103E9000059B9446634405934B46D900079B9C467B
:103EA000049A059B614408684968FEF7B6FB0D4B10
:103EB000144A049005910B40934200D9BFE0124A86
:103EC000934200D8CCE10C4B059301235B42049351
:103ED0000023079307E5C046B8630010686100102F
:103EE0000000E03F0000F07FE2FBFFFF0000F03F3A
:103EF0000000B0FCFFFF9F7CFFFFEF7F0000F0BFE2
:103F0000906300100000A07C0000907C01230993C6
:103F10007A1C1B927B78002B01D1FFF785FB1700E1
:103F2000FFF71BFB00230993F2E7D2491E9B8C4647
:103F3000D14A04931F9B1A401D9B63441B051A43DF
:103F40000592230704D58023059A1B061A43059280
:103F5000049B059C9B462700E4E5C8491BA801F08B
:103F600011F8002801D1FFF75FFB1B9BC449013BFF
:103F70001BA81B9301F006F8002802D11B9B0133FC
:103F80001B930023BF4F9B46CCE5119E129D300032
:103F90002900FEF7D5FBFEF7CBFB02000B0030003B
:103FA0002900FEF716FB049A109B24031343240BED
:103FB00005000E00B44A1C4313D1B44BFEF774FB4A
:103FC000002800D19AE553464646BA46D8460C9397
:103FD0001C98049B059C9B4627007BE600239B4680
:103FE000E3E6AB4BFEF760FB0028ECD12800310084
:103FF000A84AA94BFEF766FB002800D17EE5E2E760
:10400000099B029401931CAB009350461DABA34A3D
:104010001BA900F0D1FC07231D000400054003424A
:1040200000D17CE5062D74D1089B002B01D1FFF750
:1040300000FB1E60002300279B46FFF7FDFA2223AA
:10404000524613609DE7534666E65B464846079333
:1040500043468946A84601001D000232082E43DC73
:104060001600FFF725FB5A463800079901F032FE8B
:10407000002845D000230026994698460D93FFF767
:10408000A5FA0C9B163300DA70E504980599109B8D
:104090000B9A9A1A824BD2009B181A685B68FEF73B
:1040A000A2FA83460F003DE5059B0E93002B00D03E
:1040B000B7E653464646BA46D8460C9322235246A4
:1040C000136000231C989B461F0003E61A000B9305
:1040D000744B9A4201DCFFF797FBFFF794FB119AB0
:1040E000129B16921793EAE4102A4FDC4B469B0072
:1040F0004B4489465B00160000209944FFF7E1FA23
:1041000000221B9B90465B441B9391461C78FFF753
:10411000B0FA1C9A002A07D035211EA801F088FDAC
:1041200050461C9901F076F8052D00D909E75E4B41
:10413000AD005B599F465D4B059301235B420493A1
:10414000FFE6504B0593FCE61E9B04931F9B0593D3
:10415000F7E60020FFF799FA5149DB00C918086813
:104160004968049A059BFEF758FA83460F00D9E484
:1041700000230D961093FFF7A9FA00234C4C1893D7
:10418000199400231193444B129304E61600002067
:10419000FFF797FA0F23424C9E1BF1006118049A17
:1041A000059B08684968FEF738FA0C9B9E1BF600D1
:1041B000A61932687368FEF730FA83460F00B1E43F
:1041C00053460C930B9B4646D8469B46109BBA46DB
:1041D0000A9F002B00D1C0E0049B059C35492303B6
:1041E00022001B0B8B4200D1F5E01199002900D170
:1041F000BCE0049A059B1C0019421ED0109B584637
:104200003900002B00D1BDE001F0D0FB079B002B53
:104210000BD06B236400640D1C1B002C05DD264DA8
:10422000240500226319FEF7F8F902000B00584636
:104230003900FEF7D3F983460F00079B002B0DD002
:10424000584639001D4B0022FEF7E7F9030083466C
:104250000F000B4302D12223524613601C9839E50C
:10426000D42292040B0094466344059300230793E1
:10427000FFF739FB33040000FFFFEFFF88600010F9
:104280008C6000100000F07F9535A094FFFFCF3FB9
:10429000FFFFDF3F35E5AF350000E03F686100100C
:1042A000B86300101F4E000050610010FFFFFF7F39
:1042B0000000E0BFFFFF0F000000F03F000050399A
:1042C0006D491EAA14311BA800F072FE052801D00A
:1042D000FFF7A2F91F9B694A1A431E9B059204939C
:1042E000049B059C9B462700FFF71CFC5346049942
:1042F000059A0C930B9B4646D8469B46109BBA46A4
:104300000B430A9F99D11400130396D15B4B1340C2
:10431000D622D204934290D97369002B02D133691B
:10432000012B8ADD31000122504601F0E1F94946B6
:10433000060001F05BFA002800DC7EE7079B002BFB
:104340006ED0D6224D4BD2042340934268DCDC224F
:104350009204934200DD73E7B0E60499059A1303D3
:104360001B0B14000B4300D03FE7E7E70E9A049BBA
:10437000059C1A4200D160E740E700239946404B74
:10438000079384E501F012FB079B002B56D06B23AB
:104390006400640D1C1B002C05DD3A4D2405002231
:1043A0006319FEF73AF902000B0058463900FEF790
:1043B00010F90022002383460F00FEF76DF9002854
:1043C00000D13DE77AE6012252429A40049B134015
:1043D0000493FFF723FC079B0499002B2BD0D420D8
:1043E000264BC0042340834225D86B201B0DC01AE6
:1043F00001235B428340994200D0F6E6224B9A4269
:1044000035D080211D4B49031A4013008C4663446C
:10441000059300230493049B059C9B4627000CE70F
:10442000164B1C40194B9C46194B6444234305937F
:1044300001235B42EEE701235B42DCE702000B0055
:1044400058463900FEF7C5F80022002383460F00C6
:10445000FEF722F9002800D030E61C983AE44B23FE
:104460009A1A4C3B934019400591FFF7D7FB4B1C20
:10447000C7D11C9828E4C046686100100000F07F96
:10448000906300100000F03FFFFFEF7F0000F0FF9F
:10449000FFFF0F0010B5024BFFF73CF810BDC04600
:1044A000740A002010B504001300034A10680A00C3
:1044B0002100FFF72FF810BD3002002010B50400D6
:1044C000034B0A0018682100024BFFF723F810BDC8
:1044D00030020020740A00201300274AF0B5C646B7
:1044E00090460A000100404600B50068FFF712F848
:1044F00002000B0005000C00FEF7E9F800282ED1A1
:1045000021002800FEF740F947007F08061C1B49E0
:10451000381CFEF730FA00281DD11849381CFEF768
:1045200015FA002817D10122640064082800210030
:10453000134B5242FEF7CBF8002808D10122280085
:1045400021000F4B5242FEF7B5F8002803D0434636
:1045500022221B681A60301C80BCB846F0BD094896
:10456000002C05DA01F0B2FB80231B06C618F2E727
:1045700001F0ACFB061CEEE730020020FFFF7F7F5E
:10458000FFFFEF7F50600010274BF0B5C6469846FE
:104590000A000100404600B5244B0068FEF7BAFF50
:1045A00002000B0005000C00FEF791F800282ED148
:1045B00021002800FEF7E8F847007F08061C1C4988
:1045C000381CFEF7D8F900281DD11949381CFEF710
:1045D000BDF9002817D101226400640828002100D9
:1045E000144B5242FEF773F8002808D1012228002C
:1045F0002100104B5242FEF75DF8002803D04346DD
:1046000022221B681A60301C80BCB846F0BD0A48E4
:10461000002C05DA01F05AFB80231B06C618F2E7CE
:1046200001F054FB061CEEE730020020740A002063
:10463000FFFF7F7FFFFFEF7F50600010F0B5002885
:104640002AD0070038000C000678013702E0013458
:10465000AE4217D02578002DF9D1002E21D07E1C36
:10466000B4460B003D7802E00133002C0FD01C78DB
:10467000A542F9D1002D0CD00023013E33706346D2
:104680001360F0BD002BDDD117600370F9E7370030
:10469000E5E700239C46F2E710680028D1D100200E
:1046A000EFE700201660ECE710B50123FFF7C6FF27
:1046B00010BDC046F8B50C000500FEF7A3FE204F64
:1046C000BB685E6803239E431E4B341B9C466444B8
:1046D000240B013C113324039C4207DB00212800FA
:1046E000FEF794FEBB689B19984204D02800FEF7A1
:1046F0008BFE0020F8BD28006142FEF787FE431CB8
:104700000DD00122BB68361B16435E600E4B28009D
:104710001A68141B1C60FEF777FE0120EAE70021EF
:104720002800FEF773FEBA68831A0F2BDEDD0749F7
:104730000968401A0449086001210B435360D5E71A
:1047400068060020EF0F0000740E002060060020B5
:10475000F0B5C64605000C0000B500294FD0FEF7A5
:1047600051FE210008394C68012622000320B24383
:104770008F187B688343624898468368BB426AD03F
:1047800043467B6026421ED108239C460C68844425
:10479000091B12198C6864454FD0CB68E3609C609C
:1047A0004346FC186468344211D1BB68554C4244FE
:1047B000A34200D17EE0FC68DC60A36001231343C8
:1047C0004B608A5006E0FC1864683442EDD0164312
:1047D0004E603A6080239B009A4213D25409D3085A
:1047E0000122A2404468DB0022434260181883681B
:1047F000C8608B608160D9602800FEF705FE80BC30
:10480000B846F0BD530A042B3ED89409260039342B
:104810003836E40004192368083C03279C4242D040
:104820005868B843904202D99B689C42F8D1DC6832
:10483000CC608B60A160D960DEE74346F818406821
:10484000304257D1FB68B86842441643C360986051
:104850004E608A50D0E713004344264206D10A68CE
:10486000891A8C689B18CA68E260946001221A4316
:104870004A60254A816012689A42BDD8234B2800BD
:104880001968FFF717FFB7E7142B07D9542B1AD86D
:10489000140B26006F346E36E400BBE71E005C3359
:1048A0005B36DC00B6E70122B610B2404668324300
:1048B0004260BDE7D9609960CB608B6001231343F0
:1048C0004B608A5098E7AA246400A34205D8D40B11
:1048D000260078347736E4009CE70D4CA34205D8D7
:1048E000940C26007D347C36E40093E7FE247E267B
:1048F000A4008FE7330013434B603A607CE7C04667
:10490000680600207006002064060020700E00205B
:1049100054050000F0B5D6464F4646460369C0B57B
:104920009A464F11BB422DDD1F220500140014359D
:104930009E000C40BB00A446AE19EB180A422AD0D8
:10494000202202CB121B9046E1409E4216D9A94676
:1049500044461A68A2400A43494604C16246894651
:1049600002CBD1409E42F3D85346DC1BA400043C4A
:104970002C192160002919D0043417E02C00416162
:104980000029F9D10023036100234361E0BCBA464A
:10499000B146A846F0BD2A009E42F3D902CB02C21E
:1049A0009E42FBD85346DC1BA4002C19631B9B10B2
:1049B0000361AC42EAD1E7E7F0B5DE464E46454634
:1049C0005746E0B58BB00993B94B07901B688946F1
:1049D00018001C0093460593FEF76EFDA4460200E6
:1049E00062441300013B1B78049001934B461D6801
:1049F000AA78302A00D016E202214942EB1C491B5A
:104A00001D00CF1801335A1E1278302AF8D0A94B56
:104A100098469B5C002B00D1F3E042462B780024A3
:104A2000D35C002292462E00002B05D042467378BC
:104A30000136D35C002BF9D13000049A059901F0BE
:104A400049F90390002857D0002C58D10022337820
:104A50000392202234009343502B59D04B461E60C2
:104A60005346002B77D1631B013B0021072B03DD4D
:104A700001315B10072BFBDC079800F0A3FB82469B
:104A8000002800D170E2142353440893A54200D3B8
:104A9000D5E102930023049A994601339B1A0693A9
:104AA0002B0000274D4699460DE0202F1DD03A00DF
:104AB0000437414633783400CB5C0F210B409340E0
:104AC0001D434C4555D9661E3378019A9342ECD16B
:104AD000069BF4184C45E8D32000049A059901F090
:104AE000F9F80028EDD0202FE1D1029B002220C34D
:104AF000042700250293DCE7002C00D180E120226E
:104B0000A41BA3000393337834009343502BA5D107
:104B100063782B2B00D163E12D2B00D1A3E0002281
:104B2000611C4046C35C2600581E182896D8404693
:104B30004E1C4978103B415C081E5FD1002A00D012
:104B40005B42039A94469C44634603934B461E6023
:104B50005346002B87D07B1E9F4105237F429F43F6
:104B6000063738000BB0F0BCBB46B246A946A0469B
:104B7000F0BDA9464A46029B484604C3089A9B1AC0
:104B800052469B1013615E0100F0FAFB5B461C6805
:104B9000361AA6426BDC0025A64200DA22E15B460B
:104BA000039A9B68934200DA40E15B46039A5B6894
:104BB000934243DD9E1AB44200DD7DE05A46D2683E
:104BC000022A00D175E1032A00D16DE1012A00D14A
:104BD00050E15146079800F01DFB0023149A50271E
:104BE0001360BEE79900C9184900091840460B0038
:104BF00071780136405C103B00289FD01928F1DD08
:104C00009CE7049C28002200059901F063F8002825
:104C10006FD12300EA5C43469B5C2C19002B6AD0C1
:104C20002500302A05D16B780135302BFBD0424668
:104C3000D35C5942594101278A46F4E60127002DE9
:104C40000AD05B46DB68022B5DD0032B5FD0012BC3
:104C500000D1BBE010231F435246149B1A60099BEE
:104C6000039A1A607DE70122A378A11C59E7361B3D
:104C70003100504600F0FCFF051E0FD01F2101231C
:104C8000701E01408B404211089992008A580125FC
:104C90001A4203D0012800DDDEE002253100504633
:104CA000FFF738FE039B9C46B4446346039376E7C4
:104CB0000C63001008620010771E002D00D0C3E0C6
:104CC000002F00D0C2E01F237A111F401E3BBB40C3
:104CD000089992008A581A4201D002231D433100DC
:104CE0005046FFF717FE5B465B680227A41B039341
:104CF000A5E72C002A7820239A43502A00D1B4E05B
:104D00004B461C6027E70123159A9B1A1593159BA8
:104D1000002B9FD053461E69089DB3009946E818A2
:104D200000212B00B44603E002C3984200D8C5E03E
:104D30001A68561CF8D001321A60022F00D1D1E057
:104D40001F231E0021272640234285D04B46EB1807
:104D5000043B186800F014FB20239E1BB04200DBCC
:104D60007AE753461A69002A00DCEAE053465046C7
:104D70005B699200AA1818305B08824200D8E7E00D
:104D80002C0019000368DB070B4308C402C849085C
:104D90008242F7D80B005146521A193A9208013252
:104DA0009200AA181360002B00D0D5E05146531B87
:104DB0009B100B61AA4200D1C6E05B46039A9B6838
:104DC00001320392934231DB212745E7AA0700D441
:104DD00040E7089A1268154301922B429AD139E7AD
:104DE000002241E7A61B51463200079800F080FCE4
:104DF000039B82469B1B0393142353440893CEE6E4
:104E00004246049BF118F35C0E00D25C002A00D1EC
:104E10001FE6424673780136D25C002AF9D1891B1D
:104E20008A00039215E600270235F0E551460798FF
:104E300000F0F0F90023149AA327136091E6089B71
:104E400002930023994695E601253CE73900504638
:104E500000F00EFF050036E75046B11E00F008FFD7
:104E60000235002800D019E717E700230393013328
:104E70009A464DE6B44200D0ABE6012C08D050462D
:104E8000611E00F0F5FE002800D1A2E65B465B68DB
:104E9000099A62271360012352461361089A13602E
:104EA0005246149B1A605CE6159A002A00D190E6DF
:104EB000EEE7159A002A00D08BE6E9E752466646EF
:104EC00092686346964220DA51465A1C0A610121D3
:104ED00004339B0053445960022F03D0964200DAFA
:104EE00041E72DE75B461B682227013BA34200D028
:104EF000B2E61F2362111C401E3BA340920057598B
:104F00001F407B425F412137A6E653465B68079806
:104F1000591C00F057F9804600281FD053465146CF
:104F20001B690C319A1C92000C30FDF79FFD514615
:104F3000079800F06FF945464346C2461B69143591
:104F4000C2E700235246136100235246536134E7FF
:104F50002A002B60002B0DD0043227E70022842189
:104F6000064B0748FDF7EAFD0022DE21034B04480B
:104F7000FDF7E4FD52461361E6E7C046B861001054
:104F8000CC61001030B5026808E013781D00413D87
:104F9000192D00D820330131A34206D10C780132FB
:104FA000002CF2D10260012030BD0020FCE7C04699
:104FB000F0B54546DE4657464E4690460A681F21E4
:104FC000E0B585B00090080053119B0010404344A9
:104FD0000190114200D092E01A001F1F131F9A4641
:104FE000002352461360009B18684178002900D1C5
:104FF0009AE00023BC469B46604B3D0000245F4680
:1050000000229946E34616E0202900D989E097421C
:105010000DDA654501D2072C56DD0824A84506D2D5
:105020002B1F00219C4617001D0000241960817869
:105030000130002911D04B465B5C002BE4D00134D9
:105040000132082C39DC296809010F2633400B4353
:105050002B60817801300029EDD15F46002A63D0B2
:10506000AC4501D9072C6EDDA8454BD242462B003A
:1050700002CB02C29F42FBD2791C6A1C04239142DC
:105080005CD243441D00002308C5AF42FCD2534606
:105090001B68002B09D14346B84502D146E0BB420C
:1050A00044D0043F3A68002AF9D0052005B0F0BC8E
:1050B000BB46B246A946A046F0BDA845B7D20021DE
:1050C000043D01242960C0E708231C1BA4001833F9
:1050D000191B02902E00080003942B686446944626
:1050E000039A716881400B43336073680436D34080
:1050F0003360A642F5D362460298A4468DE71F00AE
:105100001A1D6BE7019B002BC1D02022019BD21AF4
:1051100001235B42D340524612681340524613604B
:10512000B7E75F46292905D00420BFE70123052002
:105130003B60BBE7009B023018608FE77D1BAD082A
:105140000135AB009DE7082320261C1BA4002B681B
:10515000361B1A003300280026006446AC461D00AA
:1051600041680B00AB4013430A00F2400360426009
:1051700004308442F4D8654676E7C04608620010E1
:1051800030B583B0069C034D0094E4242C59A0470D
:1051900003B030BD740A002082B000290AD0002A72
:1051A0000BD0002B0BD013780B601078431E984166
:1051B00002B0704701A9002AF3D10020F8E70220CD
:1051C0004042F5E7C36C70B504000D00002B0AD017
:1051D000A8001B18186800280ED002681A60002367
:1051E0000361C36070BD21220421FDF723FE031E6D
:1051F000E064EDD10020F5E70126AE40721D0121EB
:1052000020009200FDF716FE0028F3D0456086606E
:10521000E5E7C046002906D04B689A00C36C9B188E
:105220001A680A6019607047F0B5C6461F008046CC
:10523000002300B50E000D6914310C680133200401
:10524000000C5043240C5443C019070CE41900040B
:10525000270C000C2404241810C19D42EDDC002F03
:1052600008D0B368AB4209DD2B1D9B00F318013554
:105270005F603561300080BCB846F0BD7368404661
:10528000591CFFF79FFF041E17D0310033690C3102
:105290009A1C92000C30FDF7E9FB73689A004346B4
:1052A000DB6C9B181A6832601E6026002B1D9B0069
:1052B000F31801355F603561DCE70022B521024B50
:1052C0000248FDF73BFCC046B861001024630010A3
:1052D000F8B54746CE460600180080B50C000830E9
:1052E00009211F009046FCF711FF092F3BDD012526
:1052F00000216D000131A842FBDC3000FFF762FFA6
:10530000011E32D0089B4361012303614346092BF0
:1053100016DC092398460A3447450CDD4346E71955
:10532000FF1A23780A223000303BFFF77DFF01345B
:105330000100BC42F5D10800C0BCB946B046F8BD7A
:1053400009239946A1444D4644442B780A22300053
:10535000303BFFF769FF01350100A542F5D1444616
:10536000083C4C44D8E70021C7E70022024B034821
:10537000CE31FDF7E3FBC046B86100102463001096
:105380000300020C0020002A01D11B0410301A0E69
:1053900001D108301B021A0F01D104301B019A0FF2
:1053A00001D102309B00002B02DB01305B0000D5F5
:1053B00070472020FCE7C04603680200590707D069
:1053C000D9071ED4990720D55B08036001207047D8
:1053D0000020190401D11B0C1030FF21194201D10A
:1053E00008301B0A190701D104301B09990701D1A4
:1053F00002309B08D90702D401305B0803D0136048
:10540000E5E70020E3E72020E1E79B0803600220B6
:10541000DDE7C046C36C70B504000D00002B0AD058
:105420005868002815D002685A600023C360013311
:105430004561036170BD21220421FDF7FBFC031EC1
:10544000E064EDD1A0210022084B09484900FDF796
:1054500075FB1C2201212000FDF7ECFC0028F1D097
:105460000123436001338360DFE7C046B861001069
:1054700024630010F0B54E464546DE465746E0B57B
:105480000D6916698946140087B0B54204DB330004
:105490000C002E0091461D00A36877196168BB427D
:1054A00000DA0131FFF78EFE0590002800D1A7E059
:1054B00014229446059B002263449B46BB005B4438
:1054C0009A465B465146D34503D204C39942FCD861
:1054D0008A4614239C46A444634604931423B600CE
:1054E0006644AD009C462B00E1444B440293994531
:1054F0006ED204230393230015339E4200D27CE036
:10550000331B153B9B0801339B00B8460393019660
:1055100008E0000C31D104239C46029BE144E344A3
:105520004B4554D94B46186803041E0C002BF0D091
:10553000019B5D4600279C46049C04CC296813040B
:105540001B0C73430804000C1B18D819130C73436D
:10555000090C020C5B189B1802041F0C120C1B0494
:10556000134308C5A445E8D8634601935B46039AF4
:105570009F504B461868000CCDD05B4600271B6837
:105580005C4619003E00049D019A2F88090C474390
:105590007F18BF191B0439041B0C0B43236008CD73
:1055A00061681B0C43430E04360C9B193F0CDB193E
:1055B0001E0C0434AA42E8D801925A46039953506B
:1055C00004239C46029BE144E3444B45AAD847464A
:1055D0005346002F03DC06E0013F002F03D0043BBD
:1055E0001A68002AF8D0059B18001F6107B0F0BCAC
:1055F000BB46B246A946A046F0BDB846019691E723
:105600005E210022024B0348FF31FDF797FAC046A6
:10561000B861001024630010F8B503234746140056
:10562000CE461A0080B50E0007002240234238D132
:10563000A41025D0BD6C002D3CD00123984600233A
:1056400099464346234208D1641019D0286800289F
:105650001BD0050043462342F6D02A003100380013
:10566000FFF708FF002E1AD0FA6C736894469B006F
:1056700063441A68641032601E600600002CE5D195
:105680003000C0BCB946B046F8BD2A002900380039
:10569000FFF7F0FE4B46286005000360DAE70600DE
:1056A000D2E70F4B013A9200D2580023FFF7BCFD1E
:1056B0000600BDE701213800FFF784FD051E07D075
:1056C000084B4361012303610023B8640360B4E71E
:1056D000A0210022044B05484900FDF72FFAC046DF
:1056E0005863001071020000B861001024630010BC
:1056F000F0B50C0023694546DE4657464E469846AF
:10570000E0B55711B84443465D1CA36883461600B4
:10571000496883B09D4203DD01315B009D42FBDCA3
:105720005846FFF74FFD8446002853D0143003003D
:105730000190002F0CDDBF003A00002114326244BA
:1057400002C39342FCD1019B9946B9444B46019355
:105750002269230091001F2210001433304081463B
:105760005918324230D00132121A92460026019F57
:1057700048461A688240324304C7524640CBD6405E
:105780009942F5D8220015320423914204D30B1B11
:10579000153B9B0801339B00019AD650002E00D088
:1057A000A846634642461A61636860469A005B46B3
:1057B000DB6C9B181A6822601C6003B0F0BCBB460F
:1057C000B246A946A046F0BD019804CB04C0994258
:1057D000FBD8E6E7DA210022024B0348FF31FDF750
:1057E000ADF9C046B86100102463001003690A696E
:1057F00030B50500981A934211D192001435143136
:10580000AB18891801E09D4209D2043B04391A689B
:105810000C68A242F7D0A24292410120104330BD51
:10582000F0B54E464546DE465746E0B50B6988461C
:105830001169914683B05C1A8B4200D095E04646D0
:105840008900143614327318521802E09E4200D3B5
:105850008FE0043B043A1D6811688D42F6D000D2F7
:105860007EE043465968FFF7ADFC002800D18AE08E
:1058700043461A69142343449C46C4601C004B46AB
:105880001B6991009B0061449C4614234F469A4635
:10589000143782445346BC448B46A24614266446C1
:1058A00000219446424680460193935901CF1D043E
:1058B0002D0C691805042D0C4D1B010C40461B0CCA
:1058C0005B1A29145B182D0419142D0C1B042B438F
:1058D00083510436BC42E8D86246A4464D461C00BB
:1058E00063464E465D1B153D15360023AD08B44595
:1058F00000D3AB00019FB84604274344B44501D30D
:105900000135AF00019DBA44AC46BC44D34518D91B
:10591000654657465E4610CF23041B0C5B181914CE
:10592000240C64181B0421141B0C24041C4310C5F4
:10593000BE42F0D8310053460139CB1A9B089B0078
:105940006344002C04D1043B1968013A0029FAD0C1
:10595000026103B0F0BCBB46B246A946A046F0BD0A
:1059600043460124C84699467BE7002CF8DB002417
:1059700077E70021FFF726FC00280BD00123036105
:1059800000234361E5E790210022054B054889008B
:10599000FDF7D4F80022024B03490248FDF7CEF888
:1059A000B861001024630010320200000F4B194050
:1059B0000F4B9C466144002904DD00220B001000BF
:1059C000190070474942002200230915132904DCFD
:1059D0008020000308410300F1E7143901201E294B
:1059E00002DC80200006C8400200E8E70000F07FEB
:1059F0000000C0FCF8B506004746CE4604691436E0
:105A0000A4003419231F1D6880B528000F00984694
:105A1000FFF7B6FC20210A1A3A600A282EDD464517
:105A200023D208235B429846A04443461F680B23B9
:105A30005B429C4684440B281CD063469D40C91A97
:105A40003B00CB401C481D432843030046452FD252
:105A50000C3C2068C84061468F4007433A00100064
:105A60001900C0BCB946B046F8BD030000270B3B87
:105A70000B2817D1104929430B00EFE72F001539E8
:105A80000B1ADF400C49994639430B000027464565
:105A900003D24946083C2768CF40153085403D4336
:105AA0002A00DCE79D400449002729430B00D5E785
:105AB00061468F40D2E7C0460000F03F70B501213B
:105AC00082B015001C00FFF77DFB061E4FD023039C
:105AD00064001B0B640D02D0802252031343019318
